{
  "address": "0x8C7AE305205ECC2DF017bf7e9c014fA01188175A",
  "abi": [
    {
      "inputs": [
        {
          "internalType": "contract IERC20",
          "name": "_pToken",
          "type": "address"
        },
        {
          "internalType": "contract IERC20",
          "name": "_domToken",
          "type": "address"
        },
        {
          "internalType": "address",
          "name": "_primaryAddr",
          "type": "address"
        }
      ],
      "stateMutability": "nonpayable",
      "type": "constructor"
    },
    {
      "anonymous": false,
      "inputs": [
        {
          "indexed": true,
          "internalType": "address",
          "name": "_userAddr",
          "type": "address"
        },
        {
          "indexed": false,
          "internalType": "uint256",
          "name": "_amount",
          "type": "uint256"
        }
      ],
      "name": "Burn",
      "type": "event"
    },
    {
      "anonymous": false,
      "inputs": [
        {
          "indexed": true,
          "internalType": "address",
          "name": "previousOwner",
          "type": "address"
        },
        {
          "indexed": true,
          "internalType": "address",
          "name": "newOwner",
          "type": "address"
        }
      ],
      "name": "OwnershipTransferred",
      "type": "event"
    },
    {
      "anonymous": false,
      "inputs": [
        {
          "indexed": true,
          "internalType": "address",
          "name": "_userAddr",
          "type": "address"
        },
        {
          "indexed": false,
          "internalType": "uint256",
          "name": "level",
          "type": "uint256"
        }
      ],
      "name": "Promote",
      "type": "event"
    },
    {
      "anonymous": false,
      "inputs": [
        {
          "indexed": true,
          "internalType": "address",
          "name": "_userAddr",
          "type": "address"
        },
        {
          "indexed": false,
          "internalType": "uint256",
          "name": "_power",
          "type": "uint256"
        }
      ],
      "name": "Redeem",
      "type": "event"
    },
    {
      "anonymous": false,
      "inputs": [
        {
          "indexed": true,
          "internalType": "address",
          "name": "_userAddr",
          "type": "address"
        },
        {
          "indexed": true,
          "internalType": "address",
          "name": "_referrer",
          "type": "address"
        }
      ],
      "name": "Register",
      "type": "event"
    },
    {
      "inputs": [
        {
          "internalType": "address",
          "name": "",
          "type": "address"
        }
      ],
      "name": "Users",
      "outputs": [
        {
          "internalType": "uint256",
          "name": "id",
          "type": "uint256"
        },
        {
          "internalType": "uint256",
          "name": "level",
          "type": "uint256"
        },
        {
          "internalType": "uint256",
          "name": "burn",
          "type": "uint256"
        },
        {
          "internalType": "address",
          "name": "referrer",
          "type": "address"
        }
      ],
      "stateMutability": "view",
      "type": "function"
    },
    {
      "inputs": [],
      "name": "claimOwnership",
      "outputs": [],
      "stateMutability": "nonpayable",
      "type": "function"
    },
    {
      "inputs": [],
      "name": "dead",
      "outputs": [
        {
          "internalType": "address",
          "name": "",
          "type": "address"
        }
      ],
      "stateMutability": "view",
      "type": "function"
    },
    {
      "inputs": [],
      "name": "domToken",
      "outputs": [
        {
          "internalType": "contract IERC20",
          "name": "",
          "type": "address"
        }
      ],
      "stateMutability": "view",
      "type": "function"
    },
    {
      "inputs": [],
      "name": "factory",
      "outputs": [
        {
          "internalType": "address",
          "name": "",
          "type": "address"
        }
      ],
      "stateMutability": "view",
      "type": "function"
    },
    {
      "inputs": [
        {
          "internalType": "uint256",
          "name": "",
          "type": "uint256"
        }
      ],
      "name": "index2User",
      "outputs": [
        {
          "internalType": "address",
          "name": "",
          "type": "address"
        }
      ],
      "stateMutability": "view",
      "type": "function"
    },
    {
      "inputs": [
        {
          "internalType": "address",
          "name": "_userAddr",
          "type": "address"
        }
      ],
      "name": "isExists",
      "outputs": [
        {
          "internalType": "bool",
          "name": "",
          "type": "bool"
        }
      ],
      "stateMutability": "view",
      "type": "function"
    },
    {
      "inputs": [
        {
          "internalType": "uint256",
          "name": "",
          "type": "uint256"
        }
      ],
      "name": "levelList",
      "outputs": [
        {
          "internalType": "uint256",
          "name": "",
          "type": "uint256"
        }
      ],
      "stateMutability": "view",
      "type": "function"
    },
    {
      "inputs": [
        {
          "internalType": "uint256",
          "name": "",
          "type": "uint256"
        }
      ],
      "name": "marketList",
      "outputs": [
        {
          "internalType": "uint256",
          "name": "",
          "type": "uint256"
        }
      ],
      "stateMutability": "view",
      "type": "function"
    },
    {
      "inputs": [],
      "name": "owner",
      "outputs": [
        {
          "internalType": "address",
          "name": "",
          "type": "address"
        }
      ],
      "stateMutability": "view",
      "type": "function"
    },
    {
      "inputs": [],
      "name": "pToken",
      "outputs": [
        {
          "internalType": "contract IERC20",
          "name": "",
          "type": "address"
        }
      ],
      "stateMutability": "view",
      "type": "function"
    },
    {
      "inputs": [],
      "name": "pendingOwner",
      "outputs": [
        {
          "internalType": "address",
          "name": "",
          "type": "address"
        }
      ],
      "stateMutability": "view",
      "type": "function"
    },
    {
      "inputs": [],
      "name": "primaryAddr",
      "outputs": [
        {
          "internalType": "address",
          "name": "",
          "type": "address"
        }
      ],
      "stateMutability": "view",
      "type": "function"
    },
    {
      "inputs": [
        {
          "internalType": "uint256",
          "name": "_level",
          "type": "uint256"
        }
      ],
      "name": "promote",
      "outputs": [],
      "stateMutability": "nonpayable",
      "type": "function"
    },
    {
      "inputs": [
        {
          "internalType": "address",
          "name": "_userAddr",
          "type": "address"
        },
        {
          "internalType": "uint256",
          "name": "_power",
          "type": "uint256"
        }
      ],
      "name": "redeemPower",
      "outputs": [],
      "stateMutability": "nonpayable",
      "type": "function"
    },
    {
      "inputs": [
        {
          "internalType": "address",
          "name": "_userAddr",
          "type": "address"
        },
        {
          "internalType": "uint256",
          "name": "_power",
          "type": "uint256"
        }
      ],
      "name": "referReward",
      "outputs": [],
      "stateMutability": "nonpayable",
      "type": "function"
    },
    {
      "inputs": [
        {
          "internalType": "address",
          "name": "_referrer",
          "type": "address"
        }
      ],
      "name": "register",
      "outputs": [],
      "stateMutability": "nonpayable",
      "type": "function"
    },
    {
      "inputs": [
        {
          "internalType": "contract IERC20",
          "name": "_domToken",
          "type": "address"
        }
      ],
      "name": "setDomToken",
      "outputs": [],
      "stateMutability": "nonpayable",
      "type": "function"
    },
    {
      "inputs": [
        {
          "internalType": "address",
          "name": "_factory",
          "type": "address"
        },
        {
          "internalType": "contract IERC20",
          "name": "_usdtToken",
          "type": "address"
        }
      ],
      "name": "setFactory",
      "outputs": [],
      "stateMutability": "nonpayable",
      "type": "function"
    },
    {
      "inputs": [
        {
          "internalType": "uint256",
          "name": "_levelId",
          "type": "uint256"
        },
        {
          "internalType": "uint256[20]",
          "name": "_levelRewardList",
          "type": "uint256[20]"
        }
      ],
      "name": "setLevelRewardList",
      "outputs": [],
      "stateMutability": "nonpayable",
      "type": "function"
    },
    {
      "inputs": [
        {
          "internalType": "uint256[10]",
          "name": "_marketList",
          "type": "uint256[10]"
        }
      ],
      "name": "setMarketList",
      "outputs": [],
      "stateMutability": "nonpayable",
      "type": "function"
    },
    {
      "inputs": [
        {
          "internalType": "contract IERC20",
          "name": "_pToken",
          "type": "address"
        }
      ],
      "name": "setPToken",
      "outputs": [],
      "stateMutability": "nonpayable",
      "type": "function"
    },
    {
      "inputs": [
        {
          "internalType": "address",
          "name": "newOwner",
          "type": "address"
        },
        {
          "internalType": "bool",
          "name": "direct",
          "type": "bool"
        },
        {
          "internalType": "bool",
          "name": "renounce",
          "type": "bool"
        }
      ],
      "name": "transferOwnership",
      "outputs": [],
      "stateMutability": "nonpayable",
      "type": "function"
    },
    {
      "inputs": [],
      "name": "usdtToken",
      "outputs": [
        {
          "internalType": "contract IERC20",
          "name": "",
          "type": "address"
        }
      ],
      "stateMutability": "view",
      "type": "function"
    },
    {
      "inputs": [],
      "name": "userCount",
      "outputs": [
        {
          "internalType": "uint256",
          "name": "",
          "type": "uint256"
        }
      ],
      "stateMutability": "view",
      "type": "function"
    }
  ],
  "transactionHash": "0x8953f438d3446753628748ff2a5d677bac21ebf7c43ed57a114837a2dea5cd22",
  "args": [
    "0x5BE3748695e5dC6a253966120caE616F07a007Df",
    "0x15DDeb4F5A1b37001583DffE1aC420a0463517f9",
    "0xBc6339a0227DD17EB4a9941CCA2D2764c73310d8"
  ],
  "solcInputHash": "e60763e8c2dcc87bacfac648f852c4e7",
  "bytecode": "0x600580546001600160a01b03191661dead1790556101c060405260196080908152600660a0819052600a60c081905260e0829052610100819052610120829052610140819052610160829052600f610180526101a0919091526200006691600991620007c4565b506040805160c0810182526000815268056bc75e2d631000006020820152680ad78ebc5ac62000009181018290526060810191909152681b1ae4d6e2ef5000006080820181905260a0820152620000c29060139060066200080c565b50348015620000d057600080fd5b50604051620021763803806200217683398181016040526060811015620000f657600080fd5b5080516020820151604092830151600080546001600160a01b0319163390811782559451939492939192917f8be0079c531659141344cd1fd0a4f28419497f9722a3daafe3b4186f6b6457e0908290a3600680546001600160a01b03199081166001600160a01b038681169190911790925560078054909116918416919091179055600254620001949060016200022a602090811b6200135217901c565b60028190556001600160a01b0382166000818152601960209081526040808320859055938252601a90529190912080546001600160a01b03199081168317909155600380549091169091179055620001eb6200028c565b6040516000906001600160a01b038316907f98ada70a1cb506dc4591465e1ee9be3fd7a2b6c73ecf3b949009718c9a351519908390a350505062000894565b60008282018381101562000285576040805162461bcd60e51b815260206004820152601b60248201527f536166654d6174683a206164646974696f6e206f766572666c6f770000000000604482015290519081900360640190fd5b9392505050565b604080516102808101825260008082526020808301829052928201819052606082018190526080820181905260a0820181905260c0820181905260e08201819052610100820181905261012082018190526101408201819052610160820181905261018082018190526101a082018190526101c082018190526101e0820181905261020082018190526102208201819052610240820181905261026082018190528052601b90915262000363907f584f46c60af19681376031579adb04a2416e54ee5505351c2a8435e3766026ea90601462000848565b506040805161028081018252600f8152600a6020808301919091526000928201839052606082018390526080820183905260a0820183905260c0820183905260e08201839052610100820183905261012082018390526101408201839052610160820183905261018082018390526101a082018390526101c082018390526101e0820183905261020082018390526102208201839052610240820183905261026082018390526001909252601b90915262000442907f9fafca4c9c0d5c2cbf85f49fd8ab8212430ce78c2a0cb75b51e0f9c4f9ace00390601462000848565b50604080516102808101825260108152600b6020808301919091526009928201929092526006606082015260036080820152600060a0820181905260c0820181905260e08201819052610100820181905261012082018190526101408201819052610160820181905261018082018190526101a082018190526101c082018190526101e08201819052610200820181905261022082018190526102408201819052610260820181905260029052601b90915262000523907f1dd2f4b94a51cfb409e6e317a497f7cfd9013960a1c723f830c49c05a25f08a590601462000848565b50604080516102808101825260128152600d602080830191909152600b928201929092526009606082015260076080820152600560a0820152600460c0820152600360e082018190526002610100830152600161012083015260006101408301819052610160830181905261018083018190526101a083018190526101c083018190526101e08301819052610200830181905261022083018190526102408301819052610260830181905252601b90915262000603907f804a3d0621e73505f5f0c57c922f3e57d6b48e175551184eb12f80d7b4a9c78390601462000848565b5060408051610280810182526014808252600f602080840191909152600d93830193909352600b606083015260096080830152600760a0830152600660c0830152600560e083015260046101008301819052600261012084015260016101408401819052610160840181905261018084018190526101a084018190526101c084015260006101e08401819052610200840181905261022084018190526102408401819052610260840181905252601b909252620006e3917fa952f8c0f40734b22d2328e0f7ff57eeffee78885b9cf2147ff941cc37e1c86e919062000848565b5060408051610280810182526019815260146020808301829052600f93830193909352600d6060830152600b6080830152600960a0830152600760c0830152600560e083018190526004610100840152600361012084015260026101408401526001610160840181905261018084018190526101a084018190526101c084018190526101e08401819052610200840181905261022084018190526102408401819052610260840152600052601b909252620007c1917fb48400cb19cf39e58355a7c9fd856f9b5b7298c53856a6766c6b39755ccafa79919062000848565b50565b82600a8101928215620007fa579160200282015b82811115620007fa578251829060ff16905591602001919060010190620007d8565b50620008089291506200087d565b5090565b8260068101928215620007fa579160200282015b82811115620007fa57825182906001600160481b031690559160200191906001019062000820565b8260148101928215620007fa5791602002820182811115620007fa578251829060ff16905591602001919060010190620007d8565b5b808211156200080857600081556001016200087e565b6118d280620008a46000396000f3fe608060405234801561001057600080fd5b50600436106101735760003560e01c80635e825564116100de578063a995a6dc11610097578063e0d4f1c311610071578063e0d4f1c314610460578063e30c39781461049a578063eb5d9779146104a2578063fe8f3769146104aa57610173565b8063a995a6dc146103f7578063c45a015514610450578063cb0b586c1461045857610173565b80635e825564146103215780638da5cb5b1461034f57806396bb4fae14610357578063988155941461037d57806399b956a01461039a578063a98ad46c146103ef57610173565b80634420e486116101305780634420e4861461027c57806347257cd8146102a257806347d01b63146102ce5780634e71e0c8146102f45780635455429e146102fc57806358a06f071461031957610173565b8063078dfbe71461017857806307973ccf146101b057806311853027146101ca578063193afc0a1461021e578063232b956c1461025757806336cf7c8714610274575b600080fd5b6101ae6004803603606081101561018e57600080fd5b506001600160a01b038135169060208101351515906040013515156104d6565b005b6101b861060c565b60408051918252519081900360200190f35b6101ae60048036036101408110156101e157600080fd5b81019080806101400190600a806020026040519081016040528092919082600a602002808284376000920191909152509194506106129350505050565b61023b6004803603602081101561023457600080fd5b5035610670565b604080516001600160a01b039092168252519081900360200190f35b6101b86004803603602081101561026d57600080fd5b503561068b565b61023b61069f565b6101ae6004803603602081101561029257600080fd5b50356001600160a01b03166106ae565b6101ae600480360360408110156102b857600080fd5b506001600160a01b03813516906020013561082f565b6101ae600480360360208110156102e457600080fd5b50356001600160a01b0316610a09565b6101ae610a78565b6101ae6004803603602081101561031257600080fd5b5035610b3a565b61023b610ebb565b6101ae6004803603604081101561033757600080fd5b506001600160a01b0381358116916020013516610eca565b61023b610f48565b6101ae6004803603602081101561036d57600080fd5b50356001600160a01b0316610f57565b6101b86004803603602081101561039357600080fd5b5035610fc6565b6103c0600480360360208110156103b057600080fd5b50356001600160a01b0316610fd3565b604080519485526020850193909352838301919091526001600160a01b03166060830152519081900360800190f35b61023b611003565b6101ae60048036036102a081101561040e57600080fd5b6040805161028081810190925283359392830192916102a083019190602084019060149083908390808284376000920191909152509194506110129350505050565b61023b611079565b61023b611088565b6104866004803603602081101561047657600080fd5b50356001600160a01b0316611097565b604080519115158252519081900360200190f35b61023b6110b4565b61023b6110c3565b6101ae600480360360408110156104c057600080fd5b506001600160a01b0381351690602001356110d2565b6000546001600160a01b03163314610523576040805162461bcd60e51b8152602060048201819052602482015260008051602061187d833981519152604482015290519081900360640190fd5b81156105eb576001600160a01b03831615158061053d5750805b610586576040805162461bcd60e51b81526020600482015260156024820152744f776e61626c653a207a65726f206164647265737360581b604482015290519081900360640190fd5b600080546040516001600160a01b03808716939216917f8be0079c531659141344cd1fd0a4f28419497f9722a3daafe3b4186f6b6457e091a3600080546001600160a01b0385166001600160a01b031991821617909155600180549091169055610607565b600180546001600160a01b0319166001600160a01b0385161790555b505050565b60025481565b6000546001600160a01b0316331461065f576040805162461bcd60e51b8152602060048201819052602482015260008051602061187d833981519152604482015290519081900360640190fd5b61066c600982600a6117db565b5050565b601a602052600090815260409020546001600160a01b031681565b600981600a811061069857fe5b0154905081565b6005546001600160a01b031681565b6106b7336113b5565b15610709576040805162461bcd60e51b815260206004820152601d60248201527f636f6e7472616374206164647265737320697320666f7262696464656e000000604482015290519081900360640190fd5b61071233611097565b15610752576040805162461bcd60e51b815260206004820152600b60248201526a757365722065786973747360a81b604482015290519081900360640190fd5b61075b81611097565b6107a2576040805162461bcd60e51b81526020600482015260136024820152727265666572726572206e6f742065786973747360681b604482015290519081900360640190fd5b3360009081526019602052604090206002546107bf906001611352565b60028190558082556000908152601a602052604080822080546001600160a01b0319908116339081179092556003850180546001600160a01b0388169216821790559151919290917f98ada70a1cb506dc4591465e1ee9be3fd7a2b6c73ecf3b949009718c9a3515199190a35050565b6006546001600160a01b0316331461088e576040805162461bcd60e51b815260206004820181905260248201527f6f6e6c792070546f6b656e2063616e2063616c6c207265666572526577617264604482015290519081900360640190fd5b6001600160a01b03808316600090815260196020526040812060030154909116905b60148110156109cd576001600160a01b0382166108cc576109cd565b6001600160a01b0382166000908152601960209081526040808320600101548352601b909152812082601481106108ff57fe5b0154905080156109a3576006546001600160a01b03166340c10f1984610930606461092a89876113bb565b90611414565b6040518363ffffffff1660e01b815260040180836001600160a01b0316815260200182815260200192505050602060405180830381600087803b15801561097657600080fd5b505af115801561098a573d6000803e3d6000fd5b505050506040513d60208110156109a057600080fd5b50505b506001600160a01b03918216600090815260196020526040902060030154909116906001016108b0565b5060408051838152905133917fab3987389ddba2f2869294ed42df3352610ed801bd6a43a5277e0c42d6cf0255919081900360200190a2505050565b6000546001600160a01b03163314610a56576040805162461bcd60e51b8152602060048201819052602482015260008051602061187d833981519152604482015290519081900360640190fd5b600780546001600160a01b0319166001600160a01b0392909216919091179055565b6001546001600160a01b0316338114610ad8576040805162461bcd60e51b815260206004820181905260248201527f4f776e61626c653a2063616c6c657220213d2070656e64696e67206f776e6572604482015290519081900360640190fd5b600080546040516001600160a01b03808516939216917f8be0079c531659141344cd1fd0a4f28419497f9722a3daafe3b4186f6b6457e091a3600080546001600160a01b039092166001600160a01b0319928316179055600180549091169055565b610b4333611097565b610b86576040805162461bcd60e51b815260206004820152600f60248201526e75736572206e6f742065786973747360881b604482015290519081900360640190fd5b336000908152601960205260409020600101548111610bec576040805162461bcd60e51b815260206004820181905260248201527f6c6576656c206973206c6f776572207468616e20746865206c617374206f6e65604482015290519081900360640190fd5b6005811115610c32576040805162461bcd60e51b815260206004820152600d60248201526c6c6576656c206578636565647360981b604482015290519081900360640190fd5b600480546008546007546040805163b9b2e68f60e01b81526001600160a01b0394851695810195909552918316602485015290911660448301528051600092839273F3ed1A8248EC2488b831835b98208f6329A897689263b9b2e68f926064808201939291829003018186803b158015610cab57600080fd5b505af4158015610cbf573d6000803e3d6000fd5b505050506040513d6040811015610cd557600080fd5b508051602090910151909250905080610d25576040805162461bcd60e51b815260206004820152600d60248201526c496e76616c696420707269636560981b604482015290519081900360640190fd5b336000908152601960205260408120600190810154015b848111610d6657610d5c60138260068110610d5357fe5b01548390611352565b9150600101610d3c565b506000610d778461092a85856113bb565b600754604080516370a0823160e01b8152336004820152905192935083926001600160a01b03909216916370a0823191602480820192602092909190829003018186803b158015610dc757600080fd5b505afa158015610ddb573d6000803e3d6000fd5b505050506040513d6020811015610df157600080fd5b50511015610e3a576040805162461bcd60e51b81526020600482015260116024820152700c8deda40d2e640dcdee840cadcdeeaced607b1b604482015290519081900360640190fd5b610e443382611456565b3360009081526019602052604090206001810186905560020154610e689082611352565b33600081815260196020908152604091829020600201939093558051888152905191927fab3987389ddba2f2869294ed42df3352610ed801bd6a43a5277e0c42d6cf025592918290030190a25050505050565b6006546001600160a01b031681565b6000546001600160a01b03163314610f17576040805162461bcd60e51b8152602060048201819052602482015260008051602061187d833981519152604482015290519081900360640190fd5b600880546001600160a01b039283166001600160a01b03199182161790915560048054939092169216919091179055565b6000546001600160a01b031681565b6000546001600160a01b03163314610fa4576040805162461bcd60e51b8152602060048201819052602482015260008051602061187d833981519152604482015290519081900360640190fd5b600680546001600160a01b0319166001600160a01b0392909216919091179055565b6013816006811061069857fe5b6019602052600090815260409020805460018201546002830154600390930154919290916001600160a01b031684565b6008546001600160a01b031681565b6000546001600160a01b0316331461105f576040805162461bcd60e51b8152602060048201819052602482015260008051602061187d833981519152604482015290519081900360640190fd5b6000828152601b6020526040902061060790826014611819565b6004546001600160a01b031681565b6007546001600160a01b031681565b6001600160a01b0316600090815260196020526040902054151590565b6001546001600160a01b031681565b6003546001600160a01b031681565b6006546001600160a01b03163314611131576040805162461bcd60e51b815260206004820181905260248201527f6f6e6c792070546f6b656e2063616e2063616c6c2072656465656d506f776572604482015290519081900360640190fd5b6001600160a01b03808316600090815260196020526040812060030154909116905b601481101561134c576001600160a01b03821661116f5761134c565b6001600160a01b0382166000908152601960209081526040808320600101548352601b909152812082601481106111a257fe5b0154600654604080516370a0823160e01b81526001600160a01b038781166004830152915193945060009391909216916370a08231916024808301926020929190829003018186803b1580156111f757600080fd5b505afa15801561120b573d6000803e3d6000fd5b505050506040513d602081101561122157600080fd5b505190506000611236606461092a88866113bb565b9050818111156112b25760065460408051632770a7eb60e21b81526001600160a01b0388811660048301526024820186905291519190921691639dc29fac91604480830192600092919082900301818387803b15801561129557600080fd5b505af11580156112a9573d6000803e3d6000fd5b50505050611320565b60065460408051632770a7eb60e21b81526001600160a01b0388811660048301526024820185905291519190921691639dc29fac91604480830192600092919082900301818387803b15801561130757600080fd5b505af115801561131b573d6000803e3d6000fd5b505050505b5050506001600160a01b0391821660009081526019602052604090206003015490911690600101611153565b50505050565b6000828201838110156113ac576040805162461bcd60e51b815260206004820152601b60248201527f536166654d6174683a206164646974696f6e206f766572666c6f770000000000604482015290519081900360640190fd5b90505b92915050565b3b151590565b6000826113ca575060006113af565b828202828482816113d757fe5b04146113ac5760405162461bcd60e51b815260040180806020018281038252602181526020018061185c6021913960400191505060405180910390fd5b60006113ac83836040518060400160405280601a81526020017f536166654d6174683a206469766973696f6e206279207a65726f0000000000008152506116a2565b6001600160a01b0380831660009081526019602052604081206003015490911690611482836002611414565b90506000805b600a8110156115b5576001600160a01b0384166114a4576115b5565b6001600160a01b0384166000908152601960205260409020600101546114cb8160026113bb565b82101561158b5760006114f2606461092a600986600a81106114e957fe5b015488906113bb565b600754604080516323b872dd60e01b81523360048201526001600160a01b038a811660248301526044820185905291519394509116916323b872dd916064808201926020929091908290030181600087803b15801561155057600080fd5b505af1158015611564573d6000803e3d6000fd5b505050506040513d602081101561157a57600080fd5b5061158790508482611352565b9350505b506001600160a01b0393841660009081526019602052604090206003015490931692600101611488565b506007546005546001600160a01b03918216916323b872dd913391166115db8886611744565b6040518463ffffffff1660e01b815260040180846001600160a01b03168152602001836001600160a01b031681526020018281526020019350505050602060405180830381600087803b15801561163157600080fd5b505af1158015611645573d6000803e3d6000fd5b505050506040513d602081101561165b57600080fd5b503390507fcc16f5dbb4873280815c1ee09dbd06736cffcc184412cf7a71a0fdb75d397ca561168a8684611744565b60408051918252519081900360200190a25050505050565b6000818361172e5760405162461bcd60e51b81526004018080602001828103825283818151815260200191508051906020019080838360005b838110156116f35781810151838201526020016116db565b50505050905090810190601f1680156117205780820380516001836020036101000a031916815260200191505b509250505060405180910390fd5b50600083858161173a57fe5b0495945050505050565b60006113ac83836040518060400160405280601e81526020017f536166654d6174683a207375627472616374696f6e206f766572666c6f770000815250600081848411156117d35760405162461bcd60e51b81526020600482018181528351602484015283519092839260449091019190850190808383600083156116f35781810151838201526020016116db565b505050900390565b82600a8101928215611809579160200282015b828111156118095782518255916020019190600101906117ee565b50611815929150611846565b5090565b826014810192821561180957916020028201828111156118095782518255916020019190600101906117ee565b5b80821115611815576000815560010161184756fe536166654d6174683a206d756c7469706c69636174696f6e206f766572666c6f774f776e61626c653a2063616c6c6572206973206e6f7420746865206f776e6572a264697066735822122020acb24cf2f13430216733bef17cee64145a7e81b0dd5471438cc2b61c5c2efe64736f6c634300060c0033",
  "deployedBytecode": "0x608060405234801561001057600080fd5b50600436106101735760003560e01c80635e825564116100de578063a995a6dc11610097578063e0d4f1c311610071578063e0d4f1c314610460578063e30c39781461049a578063eb5d9779146104a2578063fe8f3769146104aa57610173565b8063a995a6dc146103f7578063c45a015514610450578063cb0b586c1461045857610173565b80635e825564146103215780638da5cb5b1461034f57806396bb4fae14610357578063988155941461037d57806399b956a01461039a578063a98ad46c146103ef57610173565b80634420e486116101305780634420e4861461027c57806347257cd8146102a257806347d01b63146102ce5780634e71e0c8146102f45780635455429e146102fc57806358a06f071461031957610173565b8063078dfbe71461017857806307973ccf146101b057806311853027146101ca578063193afc0a1461021e578063232b956c1461025757806336cf7c8714610274575b600080fd5b6101ae6004803603606081101561018e57600080fd5b506001600160a01b038135169060208101351515906040013515156104d6565b005b6101b861060c565b60408051918252519081900360200190f35b6101ae60048036036101408110156101e157600080fd5b81019080806101400190600a806020026040519081016040528092919082600a602002808284376000920191909152509194506106129350505050565b61023b6004803603602081101561023457600080fd5b5035610670565b604080516001600160a01b039092168252519081900360200190f35b6101b86004803603602081101561026d57600080fd5b503561068b565b61023b61069f565b6101ae6004803603602081101561029257600080fd5b50356001600160a01b03166106ae565b6101ae600480360360408110156102b857600080fd5b506001600160a01b03813516906020013561082f565b6101ae600480360360208110156102e457600080fd5b50356001600160a01b0316610a09565b6101ae610a78565b6101ae6004803603602081101561031257600080fd5b5035610b3a565b61023b610ebb565b6101ae6004803603604081101561033757600080fd5b506001600160a01b0381358116916020013516610eca565b61023b610f48565b6101ae6004803603602081101561036d57600080fd5b50356001600160a01b0316610f57565b6101b86004803603602081101561039357600080fd5b5035610fc6565b6103c0600480360360208110156103b057600080fd5b50356001600160a01b0316610fd3565b604080519485526020850193909352838301919091526001600160a01b03166060830152519081900360800190f35b61023b611003565b6101ae60048036036102a081101561040e57600080fd5b6040805161028081810190925283359392830192916102a083019190602084019060149083908390808284376000920191909152509194506110129350505050565b61023b611079565b61023b611088565b6104866004803603602081101561047657600080fd5b50356001600160a01b0316611097565b604080519115158252519081900360200190f35b61023b6110b4565b61023b6110c3565b6101ae600480360360408110156104c057600080fd5b506001600160a01b0381351690602001356110d2565b6000546001600160a01b03163314610523576040805162461bcd60e51b8152602060048201819052602482015260008051602061187d833981519152604482015290519081900360640190fd5b81156105eb576001600160a01b03831615158061053d5750805b610586576040805162461bcd60e51b81526020600482015260156024820152744f776e61626c653a207a65726f206164647265737360581b604482015290519081900360640190fd5b600080546040516001600160a01b03808716939216917f8be0079c531659141344cd1fd0a4f28419497f9722a3daafe3b4186f6b6457e091a3600080546001600160a01b0385166001600160a01b031991821617909155600180549091169055610607565b600180546001600160a01b0319166001600160a01b0385161790555b505050565b60025481565b6000546001600160a01b0316331461065f576040805162461bcd60e51b8152602060048201819052602482015260008051602061187d833981519152604482015290519081900360640190fd5b61066c600982600a6117db565b5050565b601a602052600090815260409020546001600160a01b031681565b600981600a811061069857fe5b0154905081565b6005546001600160a01b031681565b6106b7336113b5565b15610709576040805162461bcd60e51b815260206004820152601d60248201527f636f6e7472616374206164647265737320697320666f7262696464656e000000604482015290519081900360640190fd5b61071233611097565b15610752576040805162461bcd60e51b815260206004820152600b60248201526a757365722065786973747360a81b604482015290519081900360640190fd5b61075b81611097565b6107a2576040805162461bcd60e51b81526020600482015260136024820152727265666572726572206e6f742065786973747360681b604482015290519081900360640190fd5b3360009081526019602052604090206002546107bf906001611352565b60028190558082556000908152601a602052604080822080546001600160a01b0319908116339081179092556003850180546001600160a01b0388169216821790559151919290917f98ada70a1cb506dc4591465e1ee9be3fd7a2b6c73ecf3b949009718c9a3515199190a35050565b6006546001600160a01b0316331461088e576040805162461bcd60e51b815260206004820181905260248201527f6f6e6c792070546f6b656e2063616e2063616c6c207265666572526577617264604482015290519081900360640190fd5b6001600160a01b03808316600090815260196020526040812060030154909116905b60148110156109cd576001600160a01b0382166108cc576109cd565b6001600160a01b0382166000908152601960209081526040808320600101548352601b909152812082601481106108ff57fe5b0154905080156109a3576006546001600160a01b03166340c10f1984610930606461092a89876113bb565b90611414565b6040518363ffffffff1660e01b815260040180836001600160a01b0316815260200182815260200192505050602060405180830381600087803b15801561097657600080fd5b505af115801561098a573d6000803e3d6000fd5b505050506040513d60208110156109a057600080fd5b50505b506001600160a01b03918216600090815260196020526040902060030154909116906001016108b0565b5060408051838152905133917fab3987389ddba2f2869294ed42df3352610ed801bd6a43a5277e0c42d6cf0255919081900360200190a2505050565b6000546001600160a01b03163314610a56576040805162461bcd60e51b8152602060048201819052602482015260008051602061187d833981519152604482015290519081900360640190fd5b600780546001600160a01b0319166001600160a01b0392909216919091179055565b6001546001600160a01b0316338114610ad8576040805162461bcd60e51b815260206004820181905260248201527f4f776e61626c653a2063616c6c657220213d2070656e64696e67206f776e6572604482015290519081900360640190fd5b600080546040516001600160a01b03808516939216917f8be0079c531659141344cd1fd0a4f28419497f9722a3daafe3b4186f6b6457e091a3600080546001600160a01b039092166001600160a01b0319928316179055600180549091169055565b610b4333611097565b610b86576040805162461bcd60e51b815260206004820152600f60248201526e75736572206e6f742065786973747360881b604482015290519081900360640190fd5b336000908152601960205260409020600101548111610bec576040805162461bcd60e51b815260206004820181905260248201527f6c6576656c206973206c6f776572207468616e20746865206c617374206f6e65604482015290519081900360640190fd5b6005811115610c32576040805162461bcd60e51b815260206004820152600d60248201526c6c6576656c206578636565647360981b604482015290519081900360640190fd5b600480546008546007546040805163b9b2e68f60e01b81526001600160a01b0394851695810195909552918316602485015290911660448301528051600092839273__$1139795562d0ae445497d3fa43a7ed0192$__9263b9b2e68f926064808201939291829003018186803b158015610cab57600080fd5b505af4158015610cbf573d6000803e3d6000fd5b505050506040513d6040811015610cd557600080fd5b508051602090910151909250905080610d25576040805162461bcd60e51b815260206004820152600d60248201526c496e76616c696420707269636560981b604482015290519081900360640190fd5b336000908152601960205260408120600190810154015b848111610d6657610d5c60138260068110610d5357fe5b01548390611352565b9150600101610d3c565b506000610d778461092a85856113bb565b600754604080516370a0823160e01b8152336004820152905192935083926001600160a01b03909216916370a0823191602480820192602092909190829003018186803b158015610dc757600080fd5b505afa158015610ddb573d6000803e3d6000fd5b505050506040513d6020811015610df157600080fd5b50511015610e3a576040805162461bcd60e51b81526020600482015260116024820152700c8deda40d2e640dcdee840cadcdeeaced607b1b604482015290519081900360640190fd5b610e443382611456565b3360009081526019602052604090206001810186905560020154610e689082611352565b33600081815260196020908152604091829020600201939093558051888152905191927fab3987389ddba2f2869294ed42df3352610ed801bd6a43a5277e0c42d6cf025592918290030190a25050505050565b6006546001600160a01b031681565b6000546001600160a01b03163314610f17576040805162461bcd60e51b8152602060048201819052602482015260008051602061187d833981519152604482015290519081900360640190fd5b600880546001600160a01b039283166001600160a01b03199182161790915560048054939092169216919091179055565b6000546001600160a01b031681565b6000546001600160a01b03163314610fa4576040805162461bcd60e51b8152602060048201819052602482015260008051602061187d833981519152604482015290519081900360640190fd5b600680546001600160a01b0319166001600160a01b0392909216919091179055565b6013816006811061069857fe5b6019602052600090815260409020805460018201546002830154600390930154919290916001600160a01b031684565b6008546001600160a01b031681565b6000546001600160a01b0316331461105f576040805162461bcd60e51b8152602060048201819052602482015260008051602061187d833981519152604482015290519081900360640190fd5b6000828152601b6020526040902061060790826014611819565b6004546001600160a01b031681565b6007546001600160a01b031681565b6001600160a01b0316600090815260196020526040902054151590565b6001546001600160a01b031681565b6003546001600160a01b031681565b6006546001600160a01b03163314611131576040805162461bcd60e51b815260206004820181905260248201527f6f6e6c792070546f6b656e2063616e2063616c6c2072656465656d506f776572604482015290519081900360640190fd5b6001600160a01b03808316600090815260196020526040812060030154909116905b601481101561134c576001600160a01b03821661116f5761134c565b6001600160a01b0382166000908152601960209081526040808320600101548352601b909152812082601481106111a257fe5b0154600654604080516370a0823160e01b81526001600160a01b038781166004830152915193945060009391909216916370a08231916024808301926020929190829003018186803b1580156111f757600080fd5b505afa15801561120b573d6000803e3d6000fd5b505050506040513d602081101561122157600080fd5b505190506000611236606461092a88866113bb565b9050818111156112b25760065460408051632770a7eb60e21b81526001600160a01b0388811660048301526024820186905291519190921691639dc29fac91604480830192600092919082900301818387803b15801561129557600080fd5b505af11580156112a9573d6000803e3d6000fd5b50505050611320565b60065460408051632770a7eb60e21b81526001600160a01b0388811660048301526024820185905291519190921691639dc29fac91604480830192600092919082900301818387803b15801561130757600080fd5b505af115801561131b573d6000803e3d6000fd5b505050505b5050506001600160a01b0391821660009081526019602052604090206003015490911690600101611153565b50505050565b6000828201838110156113ac576040805162461bcd60e51b815260206004820152601b60248201527f536166654d6174683a206164646974696f6e206f766572666c6f770000000000604482015290519081900360640190fd5b90505b92915050565b3b151590565b6000826113ca575060006113af565b828202828482816113d757fe5b04146113ac5760405162461bcd60e51b815260040180806020018281038252602181526020018061185c6021913960400191505060405180910390fd5b60006113ac83836040518060400160405280601a81526020017f536166654d6174683a206469766973696f6e206279207a65726f0000000000008152506116a2565b6001600160a01b0380831660009081526019602052604081206003015490911690611482836002611414565b90506000805b600a8110156115b5576001600160a01b0384166114a4576115b5565b6001600160a01b0384166000908152601960205260409020600101546114cb8160026113bb565b82101561158b5760006114f2606461092a600986600a81106114e957fe5b015488906113bb565b600754604080516323b872dd60e01b81523360048201526001600160a01b038a811660248301526044820185905291519394509116916323b872dd916064808201926020929091908290030181600087803b15801561155057600080fd5b505af1158015611564573d6000803e3d6000fd5b505050506040513d602081101561157a57600080fd5b5061158790508482611352565b9350505b506001600160a01b0393841660009081526019602052604090206003015490931692600101611488565b506007546005546001600160a01b03918216916323b872dd913391166115db8886611744565b6040518463ffffffff1660e01b815260040180846001600160a01b03168152602001836001600160a01b031681526020018281526020019350505050602060405180830381600087803b15801561163157600080fd5b505af1158015611645573d6000803e3d6000fd5b505050506040513d602081101561165b57600080fd5b503390507fcc16f5dbb4873280815c1ee09dbd06736cffcc184412cf7a71a0fdb75d397ca561168a8684611744565b60408051918252519081900360200190a25050505050565b6000818361172e5760405162461bcd60e51b81526004018080602001828103825283818151815260200191508051906020019080838360005b838110156116f35781810151838201526020016116db565b50505050905090810190601f1680156117205780820380516001836020036101000a031916815260200191505b509250505060405180910390fd5b50600083858161173a57fe5b0495945050505050565b60006113ac83836040518060400160405280601e81526020017f536166654d6174683a207375627472616374696f6e206f766572666c6f770000815250600081848411156117d35760405162461bcd60e51b81526020600482018181528351602484015283519092839260449091019190850190808383600083156116f35781810151838201526020016116db565b505050900390565b82600a8101928215611809579160200282015b828111156118095782518255916020019190600101906117ee565b50611815929150611846565b5090565b826014810192821561180957916020028201828111156118095782518255916020019190600101906117ee565b5b80821115611815576000815560010161184756fe536166654d6174683a206d756c7469706c69636174696f6e206f766572666c6f774f776e61626c653a2063616c6c6572206973206e6f7420746865206f776e6572a264697066735822122020acb24cf2f13430216733bef17cee64145a7e81b0dd5471438cc2b61c5c2efe64736f6c634300060c0033",
  "libraries": {
    "PriceLibrary": "0xF3ed1A8248EC2488b831835b98208f6329A89768"
  },
  "devdoc": {
    "kind": "dev",
    "methods": {},
    "version": 1
  },
  "userdoc": {
    "kind": "user",
    "methods": {},
    "version": 1
  },
  "storageLayout": {
    "storage": [
      {
        "astId": 2972,
        "contract": "contracts/invite.sol:DomInvitation",
        "label": "owner",
        "offset": 0,
        "slot": "0",
        "type": "t_address"
      },
      {
        "astId": 2974,
        "contract": "contracts/invite.sol:DomInvitation",
        "label": "pendingOwner",
        "offset": 0,
        "slot": "1",
        "type": "t_address"
      },
      {
        "astId": 3987,
        "contract": "contracts/invite.sol:DomInvitation",
        "label": "userCount",
        "offset": 0,
        "slot": "2",
        "type": "t_uint256"
      },
      {
        "astId": 3989,
        "contract": "contracts/invite.sol:DomInvitation",
        "label": "primaryAddr",
        "offset": 0,
        "slot": "3",
        "type": "t_address"
      },
      {
        "astId": 3991,
        "contract": "contracts/invite.sol:DomInvitation",
        "label": "factory",
        "offset": 0,
        "slot": "4",
        "type": "t_address"
      },
      {
        "astId": 3994,
        "contract": "contracts/invite.sol:DomInvitation",
        "label": "dead",
        "offset": 0,
        "slot": "5",
        "type": "t_address"
      },
      {
        "astId": 3996,
        "contract": "contracts/invite.sol:DomInvitation",
        "label": "pToken",
        "offset": 0,
        "slot": "6",
        "type": "t_contract(IERC20)2648"
      },
      {
        "astId": 3998,
        "contract": "contracts/invite.sol:DomInvitation",
        "label": "domToken",
        "offset": 0,
        "slot": "7",
        "type": "t_contract(IERC20)2648"
      },
      {
        "astId": 4000,
        "contract": "contracts/invite.sol:DomInvitation",
        "label": "usdtToken",
        "offset": 0,
        "slot": "8",
        "type": "t_contract(IERC20)2648"
      },
      {
        "astId": 4015,
        "contract": "contracts/invite.sol:DomInvitation",
        "label": "marketList",
        "offset": 0,
        "slot": "9",
        "type": "t_array(t_uint256)10_storage"
      },
      {
        "astId": 4036,
        "contract": "contracts/invite.sol:DomInvitation",
        "label": "levelList",
        "offset": 0,
        "slot": "19",
        "type": "t_array(t_uint256)6_storage"
      },
      {
        "astId": 4040,
        "contract": "contracts/invite.sol:DomInvitation",
        "label": "Users",
        "offset": 0,
        "slot": "25",
        "type": "t_mapping(t_address,t_struct(user)3985_storage)"
      },
      {
        "astId": 4044,
        "contract": "contracts/invite.sol:DomInvitation",
        "label": "index2User",
        "offset": 0,
        "slot": "26",
        "type": "t_mapping(t_uint256,t_address)"
      },
      {
        "astId": 4050,
        "contract": "contracts/invite.sol:DomInvitation",
        "label": "levelReferMap",
        "offset": 0,
        "slot": "27",
        "type": "t_mapping(t_uint256,t_array(t_uint256)20_storage)"
      }
    ],
    "types": {
      "t_address": {
        "encoding": "inplace",
        "label": "address",
        "numberOfBytes": "20"
      },
      "t_array(t_uint256)10_storage": {
        "base": "t_uint256",
        "encoding": "inplace",
        "label": "uint256[10]",
        "numberOfBytes": "320"
      },
      "t_array(t_uint256)20_storage": {
        "base": "t_uint256",
        "encoding": "inplace",
        "label": "uint256[20]",
        "numberOfBytes": "640"
      },
      "t_array(t_uint256)6_storage": {
        "base": "t_uint256",
        "encoding": "inplace",
        "label": "uint256[6]",
        "numberOfBytes": "192"
      },
      "t_contract(IERC20)2648": {
        "encoding": "inplace",
        "label": "contract IERC20",
        "numberOfBytes": "20"
      },
      "t_mapping(t_address,t_struct(user)3985_storage)": {
        "encoding": "mapping",
        "key": "t_address",
        "label": "mapping(address => struct DomInvitation.user)",
        "numberOfBytes": "32",
        "value": "t_struct(user)3985_storage"
      },
      "t_mapping(t_uint256,t_address)": {
        "encoding": "mapping",
        "key": "t_uint256",
        "label": "mapping(uint256 => address)",
        "numberOfBytes": "32",
        "value": "t_address"
      },
      "t_mapping(t_uint256,t_array(t_uint256)20_storage)": {
        "encoding": "mapping",
        "key": "t_uint256",
        "label": "mapping(uint256 => uint256[20])",
        "numberOfBytes": "32",
        "value": "t_array(t_uint256)20_storage"
      },
      "t_struct(user)3985_storage": {
        "encoding": "inplace",
        "label": "struct DomInvitation.user",
        "members": [
          {
            "astId": 3978,
            "contract": "contracts/invite.sol:DomInvitation",
            "label": "id",
            "offset": 0,
            "slot": "0",
            "type": "t_uint256"
          },
          {
            "astId": 3980,
            "contract": "contracts/invite.sol:DomInvitation",
            "label": "level",
            "offset": 0,
            "slot": "1",
            "type": "t_uint256"
          },
          {
            "astId": 3982,
            "contract": "contracts/invite.sol:DomInvitation",
            "label": "burn",
            "offset": 0,
            "slot": "2",
            "type": "t_uint256"
          },
          {
            "astId": 3984,
            "contract": "contracts/invite.sol:DomInvitation",
            "label": "referrer",
            "offset": 0,
            "slot": "3",
            "type": "t_address"
          }
        ],
        "numberOfBytes": "128"
      },
      "t_uint256": {
        "encoding": "inplace",
        "label": "uint256",
        "numberOfBytes": "32"
      }
    }
  }
}