{
  "address": "0x5BE3748695e5dC6a253966120caE616F07a007Df",
  "abi": [
    {
      "inputs": [
        {
          "internalType": "address",
          "name": "_usdt",
          "type": "address"
        },
        {
          "internalType": "address",
          "name": "_factory",
          "type": "address"
        },
        {
          "internalType": "contract IERC20",
          "name": "_dom",
          "type": "address"
        },
        {
          "internalType": "uint256",
          "name": "_domsPerBlock",
          "type": "uint256"
        },
        {
          "internalType": "uint256",
          "name": "_startBlock",
          "type": "uint256"
        },
        {
          "internalType": "address",
          "name": "_feeOwner",
          "type": "address"
        }
      ],
      "stateMutability": "nonpayable",
      "type": "constructor"
    },
    {
      "anonymous": false,
      "inputs": [
        {
          "indexed": true,
          "internalType": "address",
          "name": "owner",
          "type": "address"
        },
        {
          "indexed": true,
          "internalType": "address",
          "name": "spender",
          "type": "address"
        },
        {
          "indexed": false,
          "internalType": "uint256",
          "name": "value",
          "type": "uint256"
        }
      ],
      "name": "Approval",
      "type": "event"
    },
    {
      "anonymous": false,
      "inputs": [
        {
          "indexed": true,
          "internalType": "address",
          "name": "",
          "type": "address"
        },
        {
          "indexed": false,
          "internalType": "uint256",
          "name": "",
          "type": "uint256"
        },
        {
          "indexed": false,
          "internalType": "uint256",
          "name": "",
          "type": "uint256"
        },
        {
          "indexed": false,
          "internalType": "uint256",
          "name": "",
          "type": "uint256"
        },
        {
          "indexed": false,
          "internalType": "uint256",
          "name": "",
          "type": "uint256"
        }
      ],
      "name": "Deposit",
      "type": "event"
    },
    {
      "anonymous": false,
      "inputs": [
        {
          "indexed": true,
          "internalType": "address",
          "name": "previousOwner",
          "type": "address"
        },
        {
          "indexed": true,
          "internalType": "address",
          "name": "newOwner",
          "type": "address"
        }
      ],
      "name": "OwnershipTransferred",
      "type": "event"
    },
    {
      "anonymous": false,
      "inputs": [
        {
          "indexed": true,
          "internalType": "address",
          "name": "from",
          "type": "address"
        },
        {
          "indexed": true,
          "internalType": "address",
          "name": "to",
          "type": "address"
        },
        {
          "indexed": false,
          "internalType": "uint256",
          "name": "value",
          "type": "uint256"
        }
      ],
      "name": "Transfer",
      "type": "event"
    },
    {
      "anonymous": false,
      "inputs": [
        {
          "indexed": false,
          "internalType": "address",
          "name": "index",
          "type": "address"
        },
        {
          "indexed": false,
          "internalType": "uint256",
          "name": "",
          "type": "uint256"
        }
      ],
      "name": "UpdateReward",
      "type": "event"
    },
    {
      "anonymous": false,
      "inputs": [
        {
          "indexed": true,
          "internalType": "address",
          "name": "",
          "type": "address"
        },
        {
          "indexed": false,
          "internalType": "uint256",
          "name": "",
          "type": "uint256"
        },
        {
          "indexed": false,
          "internalType": "uint256",
          "name": "",
          "type": "uint256"
        },
        {
          "indexed": false,
          "internalType": "uint256",
          "name": "",
          "type": "uint256"
        },
        {
          "indexed": false,
          "internalType": "uint256",
          "name": "",
          "type": "uint256"
        }
      ],
      "name": "Withdraw",
      "type": "event"
    },
    {
      "anonymous": false,
      "inputs": [
        {
          "indexed": false,
          "internalType": "address",
          "name": "index",
          "type": "address"
        },
        {
          "indexed": false,
          "internalType": "uint256",
          "name": "",
          "type": "uint256"
        }
      ],
      "name": "WithdrawReward",
      "type": "event"
    },
    {
      "inputs": [
        {
          "internalType": "uint256",
          "name": "_pid",
          "type": "uint256"
        }
      ],
      "name": "APR",
      "outputs": [
        {
          "internalType": "uint256",
          "name": "yopt",
          "type": "uint256"
        },
        {
          "internalType": "uint256",
          "name": "cic",
          "type": "uint256"
        }
      ],
      "stateMutability": "view",
      "type": "function"
    },
    {
      "inputs": [
        {
          "internalType": "contract IERC20",
          "name": "_tokenA",
          "type": "address"
        },
        {
          "internalType": "contract IERC20",
          "name": "_tokenB",
          "type": "address"
        },
        {
          "internalType": "uint256",
          "name": "_maxWeight",
          "type": "uint256"
        },
        {
          "internalType": "uint256[3]",
          "name": "_minWeight",
          "type": "uint256[3]"
        },
        {
          "internalType": "uint256[3]",
          "name": "_proportions",
          "type": "uint256[3]"
        }
      ],
      "name": "add",
      "outputs": [],
      "stateMutability": "nonpayable",
      "type": "function"
    },
    {
      "inputs": [
        {
          "internalType": "address",
          "name": "owner",
          "type": "address"
        },
        {
          "internalType": "address",
          "name": "spender",
          "type": "address"
        }
      ],
      "name": "allowance",
      "outputs": [
        {
          "internalType": "uint256",
          "name": "",
          "type": "uint256"
        }
      ],
      "stateMutability": "view",
      "type": "function"
    },
    {
      "inputs": [
        {
          "internalType": "address",
          "name": "spender",
          "type": "address"
        },
        {
          "internalType": "uint256",
          "name": "amount",
          "type": "uint256"
        }
      ],
      "name": "approve",
      "outputs": [
        {
          "internalType": "bool",
          "name": "",
          "type": "bool"
        }
      ],
      "stateMutability": "nonpayable",
      "type": "function"
    },
    {
      "inputs": [
        {
          "internalType": "address",
          "name": "account",
          "type": "address"
        }
      ],
      "name": "balanceOf",
      "outputs": [
        {
          "internalType": "uint256",
          "name": "",
          "type": "uint256"
        }
      ],
      "stateMutability": "view",
      "type": "function"
    },
    {
      "inputs": [
        {
          "internalType": "uint256",
          "name": "_period",
          "type": "uint256"
        }
      ],
      "name": "bonusEndBlock",
      "outputs": [
        {
          "internalType": "uint256",
          "name": "",
          "type": "uint256"
        }
      ],
      "stateMutability": "view",
      "type": "function"
    },
    {
      "inputs": [
        {
          "internalType": "address",
          "name": "_to",
          "type": "address"
        },
        {
          "internalType": "uint256",
          "name": "_amount",
          "type": "uint256"
        }
      ],
      "name": "burn",
      "outputs": [],
      "stateMutability": "nonpayable",
      "type": "function"
    },
    {
      "inputs": [],
      "name": "claimOwnership",
      "outputs": [],
      "stateMutability": "nonpayable",
      "type": "function"
    },
    {
      "inputs": [],
      "name": "dead",
      "outputs": [
        {
          "internalType": "address",
          "name": "",
          "type": "address"
        }
      ],
      "stateMutability": "view",
      "type": "function"
    },
    {
      "inputs": [],
      "name": "decimals",
      "outputs": [
        {
          "internalType": "uint8",
          "name": "",
          "type": "uint8"
        }
      ],
      "stateMutability": "view",
      "type": "function"
    },
    {
      "inputs": [
        {
          "internalType": "address",
          "name": "spender",
          "type": "address"
        },
        {
          "internalType": "uint256",
          "name": "subtractedValue",
          "type": "uint256"
        }
      ],
      "name": "decreaseAllowance",
      "outputs": [
        {
          "internalType": "bool",
          "name": "",
          "type": "bool"
        }
      ],
      "stateMutability": "nonpayable",
      "type": "function"
    },
    {
      "inputs": [
        {
          "internalType": "uint256",
          "name": "_pid",
          "type": "uint256"
        },
        {
          "internalType": "uint256",
          "name": "_amountT",
          "type": "uint256"
        },
        {
          "internalType": "uint256",
          "name": "_rid",
          "type": "uint256"
        }
      ],
      "name": "deposit",
      "outputs": [],
      "stateMutability": "nonpayable",
      "type": "function"
    },
    {
      "inputs": [],
      "name": "dom",
      "outputs": [
        {
          "internalType": "contract IERC20",
          "name": "",
          "type": "address"
        }
      ],
      "stateMutability": "view",
      "type": "function"
    },
    {
      "inputs": [],
      "name": "domsPerBlock",
      "outputs": [
        {
          "internalType": "uint256",
          "name": "",
          "type": "uint256"
        }
      ],
      "stateMutability": "view",
      "type": "function"
    },
    {
      "inputs": [
        {
          "internalType": "address",
          "name": "account",
          "type": "address"
        }
      ],
      "name": "earned",
      "outputs": [
        {
          "internalType": "uint256",
          "name": "",
          "type": "uint256"
        }
      ],
      "stateMutability": "view",
      "type": "function"
    },
    {
      "inputs": [
        {
          "internalType": "uint256",
          "name": "_pid",
          "type": "uint256"
        }
      ],
      "name": "emergencyWithdraw",
      "outputs": [],
      "stateMutability": "nonpayable",
      "type": "function"
    },
    {
      "inputs": [],
      "name": "factory",
      "outputs": [
        {
          "internalType": "address",
          "name": "",
          "type": "address"
        }
      ],
      "stateMutability": "view",
      "type": "function"
    },
    {
      "inputs": [],
      "name": "feeA",
      "outputs": [
        {
          "internalType": "uint256",
          "name": "",
          "type": "uint256"
        }
      ],
      "stateMutability": "view",
      "type": "function"
    },
    {
      "inputs": [],
      "name": "feeB",
      "outputs": [
        {
          "internalType": "uint256",
          "name": "",
          "type": "uint256"
        }
      ],
      "stateMutability": "view",
      "type": "function"
    },
    {
      "inputs": [],
      "name": "feeOwner",
      "outputs": [
        {
          "internalType": "address",
          "name": "",
          "type": "address"
        }
      ],
      "stateMutability": "view",
      "type": "function"
    },
    {
      "inputs": [
        {
          "internalType": "address",
          "name": "account",
          "type": "address"
        }
      ],
      "name": "getBalanceOfHash",
      "outputs": [
        {
          "internalType": "uint256",
          "name": "poolHash",
          "type": "uint256"
        },
        {
          "internalType": "uint256",
          "name": "teamHash",
          "type": "uint256"
        }
      ],
      "stateMutability": "view",
      "type": "function"
    },
    {
      "inputs": [
        {
          "internalType": "address",
          "name": "account",
          "type": "address"
        },
        {
          "internalType": "uint256",
          "name": "pid",
          "type": "uint256"
        }
      ],
      "name": "getDeposit",
      "outputs": [
        {
          "components": [
            {
              "internalType": "uint256",
              "name": "amountA",
              "type": "uint256"
            },
            {
              "internalType": "uint256",
              "name": "amountB",
              "type": "uint256"
            },
            {
              "internalType": "uint256",
              "name": "amountR",
              "type": "uint256"
            }
          ],
          "internalType": "struct DomPool.DepositInfo",
          "name": "depositInfo",
          "type": "tuple"
        }
      ],
      "stateMutability": "view",
      "type": "function"
    },
    {
      "inputs": [
        {
          "internalType": "uint256",
          "name": "_pid",
          "type": "uint256"
        }
      ],
      "name": "getMinWeight",
      "outputs": [
        {
          "internalType": "uint256[3]",
          "name": "",
          "type": "uint256[3]"
        }
      ],
      "stateMutability": "view",
      "type": "function"
    },
    {
      "inputs": [
        {
          "internalType": "uint256",
          "name": "_from",
          "type": "uint256"
        },
        {
          "internalType": "uint256",
          "name": "_to",
          "type": "uint256"
        }
      ],
      "name": "getMultiplier",
      "outputs": [
        {
          "internalType": "uint256",
          "name": "multiplier",
          "type": "uint256"
        },
        {
          "internalType": "uint256",
          "name": "curHash",
          "type": "uint256"
        }
      ],
      "stateMutability": "view",
      "type": "function"
    },
    {
      "inputs": [
        {
          "internalType": "address",
          "name": "tokenA",
          "type": "address"
        },
        {
          "internalType": "address",
          "name": "tokenB",
          "type": "address"
        }
      ],
      "name": "getPrice",
      "outputs": [
        {
          "internalType": "uint256",
          "name": "",
          "type": "uint256"
        },
        {
          "internalType": "uint256",
          "name": "",
          "type": "uint256"
        }
      ],
      "stateMutability": "view",
      "type": "function"
    },
    {
      "inputs": [
        {
          "internalType": "uint256",
          "name": "_pid",
          "type": "uint256"
        }
      ],
      "name": "getProportions",
      "outputs": [
        {
          "internalType": "uint256[3]",
          "name": "",
          "type": "uint256[3]"
        }
      ],
      "stateMutability": "view",
      "type": "function"
    },
    {
      "inputs": [
        {
          "internalType": "address",
          "name": "spender",
          "type": "address"
        },
        {
          "internalType": "uint256",
          "name": "addedValue",
          "type": "uint256"
        }
      ],
      "name": "increaseAllowance",
      "outputs": [
        {
          "internalType": "bool",
          "name": "",
          "type": "bool"
        }
      ],
      "stateMutability": "nonpayable",
      "type": "function"
    },
    {
      "inputs": [],
      "name": "inviter",
      "outputs": [
        {
          "internalType": "contract IInvite",
          "name": "",
          "type": "address"
        }
      ],
      "stateMutability": "view",
      "type": "function"
    },
    {
      "inputs": [],
      "name": "lastUpdateBlock",
      "outputs": [
        {
          "internalType": "uint256",
          "name": "",
          "type": "uint256"
        }
      ],
      "stateMutability": "view",
      "type": "function"
    },
    {
      "inputs": [
        {
          "internalType": "address",
          "name": "token",
          "type": "address"
        },
        {
          "internalType": "address",
          "name": "_to",
          "type": "address"
        }
      ],
      "name": "migrate",
      "outputs": [],
      "stateMutability": "nonpayable",
      "type": "function"
    },
    {
      "inputs": [
        {
          "internalType": "address",
          "name": "_to",
          "type": "address"
        },
        {
          "internalType": "uint256",
          "name": "_amount",
          "type": "uint256"
        }
      ],
      "name": "mint",
      "outputs": [
        {
          "internalType": "bool",
          "name": "",
          "type": "bool"
        }
      ],
      "stateMutability": "nonpayable",
      "type": "function"
    },
    {
      "inputs": [
        {
          "internalType": "uint256",
          "name": "_month",
          "type": "uint256"
        }
      ],
      "name": "mrate",
      "outputs": [
        {
          "internalType": "uint256",
          "name": "",
          "type": "uint256"
        }
      ],
      "stateMutability": "view",
      "type": "function"
    },
    {
      "inputs": [],
      "name": "name",
      "outputs": [
        {
          "internalType": "string",
          "name": "",
          "type": "string"
        }
      ],
      "stateMutability": "view",
      "type": "function"
    },
    {
      "inputs": [],
      "name": "owner",
      "outputs": [
        {
          "internalType": "address",
          "name": "",
          "type": "address"
        }
      ],
      "stateMutability": "view",
      "type": "function"
    },
    {
      "inputs": [],
      "name": "paused",
      "outputs": [
        {
          "internalType": "bool",
          "name": "",
          "type": "bool"
        }
      ],
      "stateMutability": "view",
      "type": "function"
    },
    {
      "inputs": [],
      "name": "pendingOwner",
      "outputs": [
        {
          "internalType": "address",
          "name": "",
          "type": "address"
        }
      ],
      "stateMutability": "view",
      "type": "function"
    },
    {
      "inputs": [
        {
          "internalType": "uint256",
          "name": "blockNumber",
          "type": "uint256"
        }
      ],
      "name": "period",
      "outputs": [
        {
          "internalType": "uint256",
          "name": "_period",
          "type": "uint256"
        }
      ],
      "stateMutability": "view",
      "type": "function"
    },
    {
      "inputs": [
        {
          "internalType": "address",
          "name": "account",
          "type": "address"
        },
        {
          "internalType": "uint256",
          "name": "_pid",
          "type": "uint256"
        }
      ],
      "name": "poolEarned",
      "outputs": [
        {
          "internalType": "uint256",
          "name": "",
          "type": "uint256"
        }
      ],
      "stateMutability": "view",
      "type": "function"
    },
    {
      "inputs": [],
      "name": "poolLength",
      "outputs": [
        {
          "internalType": "uint256",
          "name": "",
          "type": "uint256"
        }
      ],
      "stateMutability": "view",
      "type": "function"
    },
    {
      "inputs": [
        {
          "internalType": "uint256",
          "name": "",
          "type": "uint256"
        }
      ],
      "name": "pools",
      "outputs": [
        {
          "internalType": "contract IERC20",
          "name": "tokenA",
          "type": "address"
        },
        {
          "internalType": "contract IERC20",
          "name": "tokenB",
          "type": "address"
        },
        {
          "internalType": "bool",
          "name": "status",
          "type": "bool"
        },
        {
          "internalType": "uint256",
          "name": "maxWeight",
          "type": "uint256"
        },
        {
          "internalType": "uint256",
          "name": "totalAmount",
          "type": "uint256"
        }
      ],
      "stateMutability": "view",
      "type": "function"
    },
    {
      "inputs": [
        {
          "internalType": "uint256",
          "name": "domactul",
          "type": "uint256"
        }
      ],
      "name": "rewardPerToken",
      "outputs": [
        {
          "internalType": "uint256",
          "name": "",
          "type": "uint256"
        }
      ],
      "stateMutability": "view",
      "type": "function"
    },
    {
      "inputs": [],
      "name": "rewardPerTokenStored",
      "outputs": [
        {
          "internalType": "uint256",
          "name": "",
          "type": "uint256"
        }
      ],
      "stateMutability": "view",
      "type": "function"
    },
    {
      "inputs": [
        {
          "internalType": "address",
          "name": "",
          "type": "address"
        }
      ],
      "name": "rewards",
      "outputs": [
        {
          "internalType": "uint256",
          "name": "",
          "type": "uint256"
        }
      ],
      "stateMutability": "view",
      "type": "function"
    },
    {
      "inputs": [
        {
          "internalType": "uint256",
          "name": "_pid",
          "type": "uint256"
        },
        {
          "internalType": "bool",
          "name": "_status",
          "type": "bool"
        },
        {
          "internalType": "uint256",
          "name": "_maxWeight",
          "type": "uint256"
        },
        {
          "internalType": "uint256[3]",
          "name": "_minWeight",
          "type": "uint256[3]"
        },
        {
          "internalType": "uint256[3]",
          "name": "_proportions",
          "type": "uint256[3]"
        }
      ],
      "name": "set",
      "outputs": [],
      "stateMutability": "nonpayable",
      "type": "function"
    },
    {
      "inputs": [
        {
          "internalType": "uint256",
          "name": "_domPerBlock",
          "type": "uint256"
        }
      ],
      "name": "setDomPerBlock",
      "outputs": [],
      "stateMutability": "nonpayable",
      "type": "function"
    },
    {
      "inputs": [
        {
          "internalType": "uint256",
          "name": "_feeA",
          "type": "uint256"
        },
        {
          "internalType": "uint256",
          "name": "_feeB",
          "type": "uint256"
        },
        {
          "internalType": "address",
          "name": "_feeOwner",
          "type": "address"
        }
      ],
      "name": "setFee",
      "outputs": [],
      "stateMutability": "nonpayable",
      "type": "function"
    },
    {
      "inputs": [
        {
          "internalType": "contract IInvite",
          "name": "_inviter",
          "type": "address"
        }
      ],
      "name": "setInviter",
      "outputs": [],
      "stateMutability": "nonpayable",
      "type": "function"
    },
    {
      "inputs": [],
      "name": "setPause",
      "outputs": [],
      "stateMutability": "nonpayable",
      "type": "function"
    },
    {
      "inputs": [],
      "name": "setTransferPause",
      "outputs": [],
      "stateMutability": "nonpayable",
      "type": "function"
    },
    {
      "inputs": [],
      "name": "startBlock",
      "outputs": [
        {
          "internalType": "uint256",
          "name": "",
          "type": "uint256"
        }
      ],
      "stateMutability": "view",
      "type": "function"
    },
    {
      "inputs": [],
      "name": "symbol",
      "outputs": [
        {
          "internalType": "string",
          "name": "",
          "type": "string"
        }
      ],
      "stateMutability": "view",
      "type": "function"
    },
    {
      "inputs": [],
      "name": "totalSupply",
      "outputs": [
        {
          "internalType": "uint256",
          "name": "",
          "type": "uint256"
        }
      ],
      "stateMutability": "view",
      "type": "function"
    },
    {
      "inputs": [
        {
          "internalType": "address",
          "name": "recipient",
          "type": "address"
        },
        {
          "internalType": "uint256",
          "name": "amount",
          "type": "uint256"
        }
      ],
      "name": "transfer",
      "outputs": [
        {
          "internalType": "bool",
          "name": "",
          "type": "bool"
        }
      ],
      "stateMutability": "nonpayable",
      "type": "function"
    },
    {
      "inputs": [
        {
          "internalType": "address",
          "name": "sender",
          "type": "address"
        },
        {
          "internalType": "address",
          "name": "recipient",
          "type": "address"
        },
        {
          "internalType": "uint256",
          "name": "amount",
          "type": "uint256"
        }
      ],
      "name": "transferFrom",
      "outputs": [
        {
          "internalType": "bool",
          "name": "",
          "type": "bool"
        }
      ],
      "stateMutability": "nonpayable",
      "type": "function"
    },
    {
      "inputs": [
        {
          "internalType": "address",
          "name": "newOwner",
          "type": "address"
        },
        {
          "internalType": "bool",
          "name": "direct",
          "type": "bool"
        },
        {
          "internalType": "bool",
          "name": "renounce",
          "type": "bool"
        }
      ],
      "name": "transferOwnership",
      "outputs": [],
      "stateMutability": "nonpayable",
      "type": "function"
    },
    {
      "inputs": [],
      "name": "transferPaused",
      "outputs": [
        {
          "internalType": "bool",
          "name": "",
          "type": "bool"
        }
      ],
      "stateMutability": "view",
      "type": "function"
    },
    {
      "inputs": [
        {
          "internalType": "address",
          "name": "account",
          "type": "address"
        }
      ],
      "name": "updateReward",
      "outputs": [
        {
          "internalType": "uint256",
          "name": "",
          "type": "uint256"
        }
      ],
      "stateMutability": "nonpayable",
      "type": "function"
    },
    {
      "inputs": [],
      "name": "usdt",
      "outputs": [
        {
          "internalType": "address",
          "name": "",
          "type": "address"
        }
      ],
      "stateMutability": "view",
      "type": "function"
    },
    {
      "inputs": [
        {
          "internalType": "address",
          "name": "",
          "type": "address"
        }
      ],
      "name": "users",
      "outputs": [
        {
          "internalType": "uint256",
          "name": "rewardPerTokenPaid",
          "type": "uint256"
        }
      ],
      "stateMutability": "view",
      "type": "function"
    },
    {
      "inputs": [
        {
          "internalType": "uint256",
          "name": "_pid",
          "type": "uint256"
        }
      ],
      "name": "withdraw",
      "outputs": [],
      "stateMutability": "nonpayable",
      "type": "function"
    },
    {
      "inputs": [],
      "name": "withdrawReward",
      "outputs": [],
      "stateMutability": "nonpayable",
      "type": "function"
    },
    {
      "inputs": [
        {
          "internalType": "uint256",
          "name": "",
          "type": "uint256"
        }
      ],
      "name": "yinit",
      "outputs": [
        {
          "internalType": "uint256",
          "name": "",
          "type": "uint256"
        }
      ],
      "stateMutability": "view",
      "type": "function"
    },
    {
      "inputs": [
        {
          "internalType": "uint256",
          "name": "_year",
          "type": "uint256"
        }
      ],
      "name": "yrate",
      "outputs": [
        {
          "internalType": "uint256",
          "name": "",
          "type": "uint256"
        }
      ],
      "stateMutability": "view",
      "type": "function"
    }
  ],
  "transactionHash": "0xdefbf1163820dc37c3ef78a3373818aeb92aa28274105a6e8a01c7a32a914462",
  "args": [
    "0x55d398326f99059fF775485246999027B3197955",
    "0xcA143Ce32Fe78f1f7019d7d551a6402fC5350c73",
    "0x15DDeb4F5A1b37001583DffE1aC420a0463517f9",
    "280211107060185180",
    "10349805",
    "0xBc6339a0227DD17EB4a9941CCA2D2764c73310d8"
  ],
  "solcInputHash": "e60763e8c2dcc87bacfac648f852c4e7",
  "bytecode": "0x608060405260646009819055600a819055600c55620f4240600d556005600e556011805461ffff1916610100179055601480546001600160a01b03191661dead1790553480156200004f57600080fd5b5060405162003acc38038062003acc833981016040819052620000729162000356565b604080518082018252600c81526b446f6d20486173685261746560a01b60208083019190915282518084018452600381526222242960e91b91810191909152600080546001600160a01b0319163390811782559351929391927f8be0079c531659141344cd1fd0a4f28419497f9722a3daafe3b4186f6b6457e0908290a3815162000105906005906020850190620002ba565b5080516200011b906006906020840190620002ba565b50506007805460ff19166012908117909155601580546001600160a01b03808b166001600160a01b031992831617909255601380548a841690831617905560168054898416908316179055918690556008859055600f859055600b805491851691909216179055506200018d62000199565b5050505050506200042c565b600d5469021e19e0c9bab240000060005b60118110156200023c576000818152601960205260408120849055620001d08262000241565b9050600083620001f2600b840a876200026860201b620020ee1790919060201c565b81620001fa57fe5b049050606462000226620002116001860162000241565b836200026860201b620020ee1790919060201c565b816200022e57fe5b0494505050600101620001aa565b505050565b600080600e54831062000257575060016200025f565b82600e540390505b60640392915050565b6000826200027957506000620002b4565b828202828482816200028757fe5b0414620002b15760405162461bcd60e51b8152600401620002a890620003d2565b60405180910390fd5b90505b92915050565b828054600181600116156101000203166002900490600052602060002090601f016020900481019282601f10620002fd57805160ff19168380011785556200032d565b828001600101855582156200032d579182015b828111156200032d57825182559160200191906001019062000310565b506200033b9291506200033f565b5090565b5b808211156200033b576000815560010162000340565b60008060008060008060c087890312156200036f578182fd5b86516200037c8162000413565b60208801519096506200038f8162000413565b6040880151909550620003a28162000413565b80945050606087015192506080870151915060a0870151620003c48162000413565b809150509295509295509295565b60208082526021908201527f536166654d6174683a206d756c7469706c69636174696f6e206f766572666c6f6040820152607760f81b606082015260800190565b6001600160a01b03811681146200042957600080fd5b50565b613690806200043c6000396000f3fe608060405234801561001057600080fd5b50600436106103c35760003560e01c80636cdbdb95116101ff578063b9818be11161011a578063d4b08aee116100ad578063e30c39781161007c578063e30c3978146107bc578063f606abe3146107c4578063fb2cb34e146107cc578063fdf8211f146107d4576103c3565b8063d4b08aee1461077b578063dd62ed3e1461078e578063df136d65146107a1578063e2f72829146107a9576103c3565b8063c9f704fb116100e9578063c9f704fb1461073a578063d3190d9e1461074d578063d3316cdb14610760578063d431b1ac14610773576103c3565b8063b9818be11461070f578063ba0daae314610717578063c45a01551461072a578063c885bc5814610732576103c3565b8063a218141b11610192578063a9059cbb11610161578063a9059cbb146106b2578063ac41865a146106c5578063ac4afa38146106d8578063b7370f94146106fc576103c3565b8063a218141b14610671578063a411e52c14610679578063a457c2d71461068c578063a87430ba1461069f576103c3565b80638dbb1e3a116101ce5780638dbb1e3a1461062257806395d89b411461064357806396d9b4091461064b5780639dc29fac1461065e576103c3565b80636cdbdb95146105ec57806370a08231146105f4578063874c120b146106075780638da5cb5b1461061a576103c3565b80632726b506116102ef57806348cd4cb1116102825780635312ea8e116102515780635312ea8e1461059e578063550d5000146105b15780635c975abb146105d1578063632447c9146105d9576103c3565b806348cd4cb1146105735780634e71e0c81461057b5780634ef7c86114610583578063503676d41461058b576103c3565b8063313ce567116102be578063313ce5671461053057806336cf7c8714610545578063395093511461054d57806340c10f1914610560576103c3565b80632726b506146104ed5780632e1a7d4d1461050d5780632ee60581146105205780632f48ab7d14610528576103c3565b8063095ea7b31161036757806315c383db1161033657806315c383db146104b757806315e64d6d146104bf57806318160ddd146104d257806323b872dd146104da576103c3565b8063095ea7b31461045c5780630ca296a71461047c5780631068361f1461048f5780631493161c146104a2576103c3565b806306fdde03116103a357806306fdde03146104195780630700037d1461042e578063078dfbe714610441578063081e3eda14610454576103c3565b80628cc262146103c8578062aeef8a146103f157806301f11a6914610406575b600080fd5b6103db6103d6366004612d53565b6107e7565b6040516103e89190613533565b60405180910390f35b6104046103ff366004612fa7565b6108a3565b005b610404610414366004612f0c565b610acf565b610421610bb5565b6040516103e891906130c6565b6103db61043c366004612d53565b610c4b565b61040461044f366004612de7565b610c5d565b6103db610d43565b61046f61046a366004612e31565b610d49565b6040516103e8919061308a565b61040461048a366004612e78565b610d67565b61040461049d366004612d6f565b610f0e565b6104aa611043565b6040516103e89190612fee565b6103db611052565b6103db6104cd366004612edc565b611058565b6103db6110a1565b61046f6104e8366004612da7565b6110a7565b6105006104fb366004612e31565b61112e565b6040516103e89190613512565b61040461051b366004612edc565b611184565b6103db6113b2565b6104aa6113b8565b6105386113c7565b6040516103e89190613565565b6104aa6113d0565b61046f61055b366004612e31565b6113df565b61046f61056e366004612e31565b61142d565b6103db611464565b61040461146a565b6104aa6114f7565b6103db610599366004612edc565b611506565b6104046105ac366004612edc565b611527565b6105c46105bf366004612edc565b6116ef565b6040516103e89190613062565b61046f61174a565b6103db6105e7366004612d53565b611753565b610404611879565b6103db610602366004612d53565b6118c0565b6103db610615366004612edc565b6118db565b6104aa61191b565b610635610630366004612f36565b61192a565b6040516103e892919061353c565b6104216119cd565b6105c4610659366004612edc565b611a2e565b61040461066c366004612e31565b611a89565b6103db611ac1565b610404610687366004612edc565b611ac7565b61046f61069a366004612e31565b611b01565b6103db6106ad366004612d53565b611b69565b61046f6106c0366004612e31565b611b7b565b6106356106d3366004612d6f565b611b8f565b6106eb6106e6366004612edc565b611c34565b6040516103e8959493929190613095565b6103db61070a366004612edc565b611c83565b6104aa611c95565b610404610725366004612f7a565b611ca4565b6104aa611cf8565b610404611d07565b610635610748366004612d53565b611d7d565b6103db61075b366004612edc565b611de1565b61063561076e366004612edc565b611e06565b610404611f42565b6103db610789366004612edc565b611f80565b6103db61079c366004612d6f565b611fa3565b6103db611fce565b6104046107b7366004612d53565b611fd4565b6104aa612020565b6103db61202f565b61046f612035565b6103db6107e2366004612e31565b612043565b60008060006107f8600f544361192a565b915091506000610838600d546108326a0422ca8b0a00a4250000006108328661082c6012548a6120ee90919063ffffffff16565b906120ee565b9061212f565b6001600160a01b0386166000908152601a6020908152604080832054601b909252909120549192506108989161089290670de0b6b3a7640000906108329061088990610883886118db565b90612171565b61082c8b6118c0565b906121b3565b93505050505b919050565b60115460ff16156108cf5760405162461bcd60e51b81526004016108c69061315f565b60405180910390fd5b6000601884815481106108de57fe5b90600052602060002090600a020190508060010160149054906101000a900460ff1661091c5760405162461bcd60e51b81526004016108c690613273565b61092533611753565b5060008060006109368486886121d8565b60175492955090935091506001600160a01b0316156109b4576017546040516308e4af9b60e31b81526001600160a01b03909116906347257cd8906109819033908590600401613002565b600060405180830381600087803b15801561099b57600080fd5b505af11580156109af573d6000803e3d6000fd5b505050505b336000908152601b602090815260408083208a84526001019091529020546109dc90846121b3565b336000908152601b602090815260408083208b845260019081019092529091209182550154610a0b90836121b3565b336000908152601b602090815260408083208b845260019081019092529091209081019190915560020154610a4090826121b3565b336000908152601b602090815260408083208b84526001019091529020600201556003840154610a7090826121b3565b6003850155610a7f338261242e565b336001600160a01b03167f7162984403f6c73c8639375d45a9187dfd04602231bd8e587c415718b5f7e5f988858585604051610abe949392919061354a565b60405180910390a250505050505050565b6000546001600160a01b03163314610af95760405162461bcd60e51b81526004016108c6906132ff565b8360188681548110610b0757fe5b90600052602060002090600a020160010160146101000a81548160ff0219169083151502179055508260188681548110610b3d57fe5b90600052602060002090600a0201600201819055508160188681548110610b6057fe5b90600052602060002090600a0201600401906003610b7f929190612c50565b508060188681548110610b8e57fe5b90600052602060002090600a0201600701906003610bad929190612c50565b505050505050565b60058054604080516020601f6002600019610100600188161502019095169490940493840181900481028201810190925282815260609390929091830182828015610c415780601f10610c1657610100808354040283529160200191610c41565b820191906000526020600020905b815481529060010190602001808311610c2457829003601f168201915b5050505050905090565b601a6020526000908152604090205481565b6000546001600160a01b03163314610c875760405162461bcd60e51b81526004016108c6906132ff565b8115610d22576001600160a01b038316151580610ca15750805b610cbd5760405162461bcd60e51b81526004016108c690613244565b600080546040516001600160a01b03808716939216917f8be0079c531659141344cd1fd0a4f28419497f9722a3daafe3b4186f6b6457e091a3600080546001600160a01b0385166001600160a01b031991821617909155600180549091169055610d3e565b600180546001600160a01b0319166001600160a01b0385161790555b505050565b60185490565b6000610d5d610d566124ee565b84846124f2565b5060015b92915050565b6000546001600160a01b03163314610d915760405162461bcd60e51b81526004016108c6906132ff565b6040805160e0810182526001600160a01b0380881682528681166020830190815260019383018481526060840188815260006080860181815260a087018a815260c088018a905260188054998a0181559092528651600a9098027fb13d2d76d1f4b7be834882e410b3e3a8afaf69f83600ae24db354391d2378d2e810180549988166001600160a01b03199a8b1617815595517fb13d2d76d1f4b7be834882e410b3e3a8afaf69f83600ae24db354391d2378d2f8201805496511515600160a01b0260ff60a01b199290991696909a16959095179490941695909517909655517fb13d2d76d1f4b7be834882e410b3e3a8afaf69f83600ae24db354391d2378d3082015591517fb13d2d76d1f4b7be834882e410b3e3a8afaf69f83600ae24db354391d2378d318301559251919291610eee917fb13d2d76d1f4b7be834882e410b3e3a8afaf69f83600ae24db354391d2378d3201906003612c50565b5060c0820151610f049060078301906003612c50565b5050505050505050565b6000546001600160a01b03163314610f385760405162461bcd60e51b81526004016108c6906132ff565b6040516370a0823160e01b815282906000906001600160a01b038316906370a0823190610f69903090600401612fee565b60206040518083038186803b158015610f8157600080fd5b505afa158015610f95573d6000803e3d6000fd5b505050506040513d601f19601f82011682018060405250810190610fb99190612ef4565b60405163a9059cbb60e01b81529091506001600160a01b0383169063a9059cbb90610fea9086908590600401613002565b602060405180830381600087803b15801561100457600080fd5b505af1158015611018573d6000803e3d6000fd5b505050506040513d601f19601f8201168201806040525081019061103c9190612e5c565b5050505050565b6016546001600160a01b031681565b60095481565b600c81046000818152601960205260408120549091908261107883611de1565b9050600c8506606481900a61108f8483850a6120ee565b8161109657fe5b049695505050505050565b60045490565b60006110b48484846125a6565b611124846110c06124ee565b61111f8560405180606001604052806028815260200161360e602891396001600160a01b038a166000908152600360205260408120906110fe6124ee565b6001600160a01b0316815260208101919091526040016000205491906126bb565b6124f2565b5060019392505050565b611136612c8e565b506001600160a01b03919091166000908152601b6020908152604080832093835260019384018252918290208251606081018452815481529381015491840191909152600201549082015290565b60115460ff16156111a75760405162461bcd60e51b81526004016108c69061315f565b6111af611d07565b336000908152601b602090815260408083208484526001808201909352908320805492810180546002830180549387905591869055908590556018805493959193879081106111fa57fe5b90600052602060002090600a020190508181600301541161121c576000611224565b818160030154035b60038201556017546001600160a01b03161561129f5760175460405163fe8f376960e01b81526001600160a01b039091169063fe8f37699061126c9033908690600401613002565b600060405180830381600087803b15801561128657600080fd5b505af115801561129a573d6000803e3d6000fd5b505050505b60006127106112b9600954876120ee90919063ffffffff16565b816112c057fe5b04905060006127106112dd600a54876120ee90919063ffffffff16565b816112e457fe5b049050611307336112f58885612171565b85546001600160a01b031691906126e7565b61132a336113158784612171565b60018601546001600160a01b031691906126e7565b825461133f906001600160a01b03168361273d565b6001830154611357906001600160a01b03168261273d565b611361338561278c565b336001600160a01b03167fe08737ac48a1dab4b1a46c7dc9398bd5bfc6d7ad6fabb7cd8caa254de14def35898888886040516113a0949392919061354a565b60405180910390a25050505050505050565b60125481565b6015546001600160a01b031681565b60075460ff1690565b6014546001600160a01b031681565b6000610d5d6113ec6124ee565b8461111f85600360006113fd6124ee565b6001600160a01b03908116825260208083019390935260409182016000908120918c1681529252902054906121b3565b6017546000906001600160a01b0316331461145a5760405162461bcd60e51b81526004016108c690613293565b610d61838361242e565b60085481565b6001546001600160a01b03163381146114955760405162461bcd60e51b81526004016108c690613334565b600080546040516001600160a01b03808516939216917f8be0079c531659141344cd1fd0a4f28419497f9722a3daafe3b4186f6b6457e091a3600080546001600160a01b039092166001600160a01b0319928316179055600180549091169055565b6017546001600160a01b031681565b6000610d61620d2f0061082c846001016008546120ee90919063ffffffff16565b60115460ff161561154a5760405162461bcd60e51b81526004016108c69061315f565b336000908152601b6020908152604080832084845260018082019093529083208054928101805460028301805493879055918690559085905560188054939591938790811061159557fe5b90600052602060002090600a02019050818160030154116115b75760006115bf565b818160030154035b60038201556017546001600160a01b03161561163a5760175460405163fe8f376960e01b81526001600160a01b039091169063fe8f3769906116079033908690600401613002565b600060405180830381600087803b15801561162157600080fd5b505af1158015611635573d6000803e3d6000fd5b505050505b6000612710611654600954876120ee90919063ffffffff16565b8161165b57fe5b0490506000612710611678600a54876120ee90919063ffffffff16565b8161167f57fe5b049050611690336112f58885612171565b61169e336113158784612171565b82546116b3906001600160a01b03168361273d565b60018301546116cb906001600160a01b03168261273d565b6116d5338561278c565b5050336000908152601a6020526040812055505050505050565b6116f7612caf565b6018828154811061170457fe5b6000918252602090912060408051606081019182905292600a029091016007019060039082845b81548152602001906001019080831161172b5750505050509050919050565b60115460ff1681565b600060085443116117765760405162461bcd60e51b81526004016108c69061313c565b6000611780612862565b5091505061178d816118db565b60105543600f556001600160a01b03831615611820576001600160a01b0383166000908152601a6020908152604080832054601b909252909120546010546117f4929161089291670de0b6b3a764000091610832916117eb91612171565b61082c896118c0565b6001600160a01b0384166000908152601a6020908152604080832093909355601054601b909152919020555b6001600160a01b0383166000908152601a6020526040908190205490517f023b2764fdc69b1eb3c97dd5b1fe33df596e55cbd731ee8b0e3b9758f8f2686d9161186b91869190613002565b60405180910390a150919050565b6000546001600160a01b031633146118a35760405162461bcd60e51b81526004016108c6906132ff565b6011805461ff001981166101009182900460ff1615909102179055565b6001600160a01b031660009081526002602052604090205490565b60006118e56110a1565b6118f2575060105461089e565b610d616119126119006110a1565b61083285670de0b6b3a76400006120ee565b601054906121b3565b6000546001600160a01b031681565b600080600061193885611f80565b9050600061194585611f80565b9050855b81831161199757600061195b84611506565b9050808710156119685750855b61198861198161197786611058565b61082c8486612171565b87906121b3565b95506001909301929050611949565b61199f6110a1565b93506a0422ca8b0a00a4250000008411156119c3576a0422ca8b0a00a42500000093505b5050509250929050565b60068054604080516020601f6002600019610100600188161502019095169490940493840181900481028201810190925282815260609390929091830182828015610c415780601f10610c1657610100808354040283529160200191610c41565b611a36612caf565b60188281548110611a4357fe5b6000918252602091829020604080516060810191829052600a909302909101600481018054845292936003929160050190850180831161172b5750505050509050919050565b6017546001600160a01b03163314611ab35760405162461bcd60e51b81526004016108c690613293565b611abd828261278c565b5050565b600f5481565b6000546001600160a01b03163314611af15760405162461bcd60e51b81526004016108c6906132ff565b611afb6000611753565b50601255565b6000610d5d611b0e6124ee565b8461111f856040518060600160405280602581526020016136366025913960036000611b386124ee565b6001600160a01b03908116825260208083019390935260409182016000908120918d168152925290205491906126bb565b601b6020526000908152604090205481565b6000610d5d611b886124ee565b84846125a6565b60135460405163b9b2e68f60e01b8152600091829173F3ed1A8248EC2488b831835b98208f6329A897689163b9b2e68f91611bda916001600160a01b0316908890889060040161301b565b604080518083038186803b158015611bf157600080fd5b505af4158015611c05573d6000803e3d6000fd5b505050506040513d601f19601f82011682018060405250810190611c299190612f57565b915091509250929050565b60188181548110611c4157fe5b60009182526020909120600a909102018054600182015460028301546003909301546001600160a01b03928316945091811692600160a01b90910460ff169185565b60196020526000908152604090205481565b600b546001600160a01b031681565b6000546001600160a01b03163314611cce5760405162461bcd60e51b81526004016108c6906132ff565b600992909255600a55600b80546001600160a01b0319166001600160a01b03909216919091179055565b6013546001600160a01b031681565b611d1033611753565b50336000908152601a60205260409020548015611d4157336000818152601a6020526040812055611d4190826128e8565b7fbc84835063c693975166f00cffb19f01a94c2db55b1bf259238c5da3594e50663382604051611d72929190613002565b60405180910390a150565b60008060005b601854811015611dcc576001600160a01b0384166000908152601b60209081526040808320848452600101909152902060020154611dc29084906121b3565b9250600101611d83565b50611dda82610883856118c0565b9050915091565b600080600e548310611df557506001611dfd565b82600e540390505b60640392915050565b60135460165460155460405163b9b2e68f60e01b815260009384938493849373F3ed1A8248EC2488b831835b98208f6329A897689363b9b2e68f93611e5f936001600160a01b039283169391831692169060040161301b565b604080518083038186803b158015611e7657600080fd5b505af4158015611e8a573d6000803e3d6000fd5b505050506040513d601f19601f82011682018060405250810190611eae9190612f57565b91509150600060188681548110611ec157fe5b90600052602060002090600a020190508261271082600401600260038110611ee557fe5b015483600201548560125462a066800202020281611eff57fe5b0481611f0757fe5b049450806003015493506000611f1b6110a1565b90508015611f34578085870281611f2e57fe5b04611f37565b60005b955050505050915091565b6000546001600160a01b03163314611f6c5760405162461bcd60e51b81526004016108c6906132ff565b6011805460ff19811660ff90911615179055565b600060085482111561089e57620d2f00600854830381611f9c57fe5b0492915050565b6001600160a01b03918216600090815260036020908152604080832093909416825291909152205490565b60105481565b6000546001600160a01b03163314611ffe5760405162461bcd60e51b81526004016108c6906132ff565b601780546001600160a01b0319166001600160a01b0392909216919091179055565b6001546001600160a01b031681565b600a5481565b601154610100900460ff1681565b6000806000612054600f544361192a565b915091506000612088600d546108326a0422ca8b0a00a4250000006108328661082c6012548a6120ee90919063ffffffff16565b6001600160a01b0387166000818152601b602081815260408084208b855260018101835290842060020154949093525254919250906120e390670de0b6b3a764000090610832906120dc90610883876118db565b84906120ee565b979650505050505050565b6000826120fd57506000610d61565b8282028284828161210a57fe5b04146121285760405162461bcd60e51b81526004016108c6906132be565b9392505050565b600061212883836040518060400160405280601a81526020017f536166654d6174683a206469766973696f6e206279207a65726f000000000000815250612a87565b600061212883836040518060400160405280601e81526020017f536166654d6174683a207375627472616374696f6e206f766572666c6f7700008152506126bb565b6000828201838110156121285760405162461bcd60e51b81526004016108c6906131d8565b601354835460155460405163b9b2e68f60e01b8152600093849384938493849373F3ed1A8248EC2488b831835b98208f6329A897689363b9b2e68f93612234936001600160a01b0393841693928316929091169060040161301b565b604080518083038186803b15801561224b57600080fd5b505af415801561225f573d6000803e3d6000fd5b505050506040513d601f19601f820116820180604052508101906122839190612f57565b60135460018b015460155460405163b9b2e68f60e01b8152949650929450600093849373F3ed1A8248EC2488b831835b98208f6329A897689363b9b2e68f936122e2936001600160a01b0392831693918316929091169060040161301b565b604080518083038186803b1580156122f957600080fd5b505af415801561230d573d6000803e3d6000fd5b505050506040513d601f19601f820116820180604052508101906123319190612f57565b91509150600c5461235a846108328d6007018d6003811061234e57fe5b015461082c8d8a6120ee565b8161236157fe5b049650600c546123948261083261238a8e6007018e6003811061238057fe5b0154606490612171565b61082c8d886120ee565b8161239b57fe5b8b5491900496506123b7906001600160a01b031633308a612abe565b60018a01546123d1906001600160a01b0316333089612abe565b82158015906123df57508015155b6123fb5760405162461bcd60e51b81526004016108c69061347d565b6127108a6004018a6003811061240d57fe5b01548b600201548a02028161241e57fe5b0494505050505093509350939050565b6001600160a01b0382166124545760405162461bcd60e51b81526004016108c6906134db565b61246060008383612adf565b60045461246d90826121b3565b6004556001600160a01b03821660009081526002602052604090205461249390826121b3565b6001600160a01b0383166000818152600260205260408082209390935591519091907fddf252ad1be2c89b69c2b068fc378daa952ba7f163c4a11628f55a4df523b3ef906124e2908590613533565b60405180910390a35050565b3390565b6001600160a01b0383166125185760405162461bcd60e51b81526004016108c6906133ef565b6001600160a01b03821661253e5760405162461bcd60e51b81526004016108c690613196565b6001600160a01b0380841660008181526003602090815260408083209487168084529490915290819020849055517f8c5be1e5ebec7d5bd14f71427d1e84f3dd0314c0f7b2291e5b200ac8c7c3b92590612599908590613533565b60405180910390a3505050565b6001600160a01b0383166125cc5760405162461bcd60e51b81526004016108c6906133aa565b6001600160a01b0382166125f25760405162461bcd60e51b81526004016108c6906130f9565b6125fd838383612adf565b61263a816040518060600160405280602681526020016135e8602691396001600160a01b03861660009081526002602052604090205491906126bb565b6001600160a01b03808516600090815260026020526040808220939093559084168152205461266990826121b3565b6001600160a01b0380841660008181526002602052604090819020939093559151908516907fddf252ad1be2c89b69c2b068fc378daa952ba7f163c4a11628f55a4df523b3ef90612599908590613533565b600081848411156126df5760405162461bcd60e51b81526004016108c691906130c6565b505050900390565b610d3e8363a9059cbb60e01b8484604051602401612706929190613002565b60408051601f198184030181529190526020810180516001600160e01b03166001600160e01b031990931692909217909152612b6e565b6016546001600160a01b03838116911614156127725760145461276d906001600160a01b038481169116836126e7565b611abd565b600b54611abd906001600160a01b038481169116836126e7565b6001600160a01b0382166127b25760405162461bcd60e51b81526004016108c690613369565b6127be82600083612adf565b6127fb816040518060600160405280602281526020016135c6602291396001600160a01b03851660009081526002602052604090205491906126bb565b6001600160a01b0383166000908152600260205260409020556004546128219082612171565b6004556040516000906001600160a01b038416907fddf252ad1be2c89b69c2b068fc378daa952ba7f163c4a11628f55a4df523b3ef906124e2908590613533565b6000806000806000612876600f544361192a565b91509150612895600d54610832601254856120ee90919063ffffffff16565b94506128b06a0422ca8b0a00a42500000061083287846120ee565b93506128bc8585612171565b925082156128e1576014546016546128e1916001600160a01b039182169116856126e7565b5050909192565b6016546040516370a0823160e01b81526000916001600160a01b0316906370a0823190612919903090600401612fee565b60206040518083038186803b15801561293157600080fd5b505afa158015612945573d6000803e3d6000fd5b505050506040513d601f19601f820116820180604052508101906129699190612ef4565b9050808211156129fd5760165460405163a9059cbb60e01b81526001600160a01b039091169063a9059cbb906129a59086908590600401613002565b602060405180830381600087803b1580156129bf57600080fd5b505af11580156129d3573d6000803e3d6000fd5b505050506040513d601f19601f820116820180604052508101906129f79190612e5c565b50610d3e565b60165460405163a9059cbb60e01b81526001600160a01b039091169063a9059cbb90612a2f9086908690600401613002565b602060405180830381600087803b158015612a4957600080fd5b505af1158015612a5d573d6000803e3d6000fd5b505050506040513d601f19601f82011682018060405250810190612a819190612e5c565b50505050565b60008183612aa85760405162461bcd60e51b81526004016108c691906130c6565b506000838581612ab457fe5b0495945050505050565b612a81846323b872dd60e01b8585856040516024016127069392919061303e565b60115460ff1615612b025760405162461bcd60e51b81526004016108c69061315f565b6001600160a01b0383163014801590612b2957506017546001600160a01b03848116911614155b15612b3957612b3783611753565b505b6001600160a01b0382163014801590612b6057506017546001600160a01b03838116911614155b15610d3e57612a8182611753565b612b7782612c4a565b612b935760405162461bcd60e51b81526004016108c6906134a4565b60006060836001600160a01b031683604051612baf9190612fd2565b6000604051808303816000865af19150503d8060008114612bec576040519150601f19603f3d011682016040523d82523d6000602084013e612bf1565b606091505b509150915081612c135760405162461bcd60e51b81526004016108c69061320f565b805115612a815780806020019051810190612c2e9190612e5c565b612a815760405162461bcd60e51b81526004016108c690613433565b3b151590565b8260038101928215612c7e579160200282015b82811115612c7e578251825591602001919060010190612c63565b50612c8a929150612ccd565b5090565b60405180606001604052806000815260200160008152602001600081525090565b60405180606001604052806003906020820280368337509192915050565b5b80821115612c8a5760008155600101612cce565b600082601f830112612cf2578081fd5b6040516060810181811067ffffffffffffffff82111715612d11578283fd5b6040529050808260608101851015612d2857600080fd5b60005b6003811015612d4a578135835260209283019290910190600101612d2b565b50505092915050565b600060208284031215612d64578081fd5b81356121288161359f565b60008060408385031215612d81578081fd5b8235612d8c8161359f565b91506020830135612d9c8161359f565b809150509250929050565b600080600060608486031215612dbb578081fd5b8335612dc68161359f565b92506020840135612dd68161359f565b929592945050506040919091013590565b600080600060608486031215612dfb578283fd5b8335612e068161359f565b92506020840135612e16816135b7565b91506040840135612e26816135b7565b809150509250925092565b60008060408385031215612e43578182fd5b8235612e4e8161359f565b946020939093013593505050565b600060208284031215612e6d578081fd5b8151612128816135b7565b60008060008060006101208688031215612e90578081fd5b8535612e9b8161359f565b94506020860135612eab8161359f565b935060408601359250612ec18760608801612ce2565b9150612ed08760c08801612ce2565b90509295509295909350565b600060208284031215612eed578081fd5b5035919050565b600060208284031215612f05578081fd5b5051919050565b60008060008060006101208688031215612f24578081fd5b853594506020860135612eab816135b7565b60008060408385031215612f48578182fd5b50508035926020909101359150565b60008060408385031215612f69578182fd5b505080516020909101519092909150565b600080600060608486031215612f8e578081fd5b83359250602084013591506040840135612e268161359f565b600080600060608486031215612fbb578081fd5b505081359360208301359350604090920135919050565b60008251612fe4818460208701613573565b9190910192915050565b6001600160a01b0391909116815260200190565b6001600160a01b03929092168252602082015260400190565b6001600160a01b0393841681529183166020830152909116604082015260600190565b6001600160a01b039384168152919092166020820152604081019190915260600190565b60608101818360005b6003811015612d4a57815183526020928301929091019060010161306b565b901515815260200190565b6001600160a01b03958616815293909416602084015290151560408301526060820152608081019190915260a00190565b60006020825282518060208401526130e5816040850160208701613573565b601f01601f19169190910160400192915050565b60208082526023908201527f45524332303a207472616e7366657220746f20746865207a65726f206164647260408201526265737360e81b606082015260800190565b6020808252600990820152681b9bdd081cdd185c9d60ba1b604082015260600190565b60208082526019908201527f4d696e696e6720686173206265656e2073757370656e64656400000000000000604082015260600190565b60208082526022908201527f45524332303a20617070726f766520746f20746865207a65726f206164647265604082015261737360f01b606082015260800190565b6020808252601b908201527f536166654d6174683a206164646974696f6e206f766572666c6f770000000000604082015260600190565b6020808252818101527f5361666545524332303a206c6f772d6c6576656c2063616c6c206661696c6564604082015260600190565b6020808252601590820152744f776e61626c653a207a65726f206164647265737360581b604082015260600190565b60208082526006908201526518db1bdcd95960d21b604082015260600190565b602080825260119082015270666f7262696464656e206f70657261746560781b604082015260600190565b60208082526021908201527f536166654d6174683a206d756c7469706c69636174696f6e206f766572666c6f6040820152607760f81b606082015260800190565b6020808252818101527f4f776e61626c653a2063616c6c6572206973206e6f7420746865206f776e6572604082015260600190565b6020808252818101527f4f776e61626c653a2063616c6c657220213d2070656e64696e67206f776e6572604082015260600190565b60208082526021908201527f45524332303a206275726e2066726f6d20746865207a65726f206164647265736040820152607360f81b606082015260800190565b60208082526025908201527f45524332303a207472616e736665722066726f6d20746865207a65726f206164604082015264647265737360d81b606082015260800190565b60208082526024908201527f45524332303a20617070726f76652066726f6d20746865207a65726f206164646040820152637265737360e01b606082015260800190565b6020808252602a908201527f5361666545524332303a204552433230206f7065726174696f6e20646964206e6040820152691bdd081cdd58d8d9595960b21b606082015260800190565b6020808252600d908201526c496e76616c696420707269636560981b604082015260600190565b6020808252601f908201527f5361666545524332303a2063616c6c20746f206e6f6e2d636f6e747261637400604082015260600190565b6020808252601f908201527f45524332303a206d696e7420746f20746865207a65726f206164647265737300604082015260600190565b81518152602080830151908201526040918201519181019190915260600190565b90815260200190565b918252602082015260400190565b93845260208401929092526040830152606082015260800190565b60ff91909116815260200190565b60005b8381101561358e578181015183820152602001613576565b83811115612a815750506000910152565b6001600160a01b03811681146135b457600080fd5b50565b80151581146135b457600080fdfe45524332303a206275726e20616d6f756e7420657863656564732062616c616e636545524332303a207472616e7366657220616d6f756e7420657863656564732062616c616e636545524332303a207472616e7366657220616d6f756e74206578636565647320616c6c6f77616e636545524332303a2064656372656173656420616c6c6f77616e63652062656c6f77207a65726fa2646970667358221220cc7e3664e6473471b5c66f9a16c842a45a5c8ac1ff89fa20f52ab023b95e29a564736f6c634300060c0033",
  "deployedBytecode": "0x608060405234801561001057600080fd5b50600436106103c35760003560e01c80636cdbdb95116101ff578063b9818be11161011a578063d4b08aee116100ad578063e30c39781161007c578063e30c3978146107bc578063f606abe3146107c4578063fb2cb34e146107cc578063fdf8211f146107d4576103c3565b8063d4b08aee1461077b578063dd62ed3e1461078e578063df136d65146107a1578063e2f72829146107a9576103c3565b8063c9f704fb116100e9578063c9f704fb1461073a578063d3190d9e1461074d578063d3316cdb14610760578063d431b1ac14610773576103c3565b8063b9818be11461070f578063ba0daae314610717578063c45a01551461072a578063c885bc5814610732576103c3565b8063a218141b11610192578063a9059cbb11610161578063a9059cbb146106b2578063ac41865a146106c5578063ac4afa38146106d8578063b7370f94146106fc576103c3565b8063a218141b14610671578063a411e52c14610679578063a457c2d71461068c578063a87430ba1461069f576103c3565b80638dbb1e3a116101ce5780638dbb1e3a1461062257806395d89b411461064357806396d9b4091461064b5780639dc29fac1461065e576103c3565b80636cdbdb95146105ec57806370a08231146105f4578063874c120b146106075780638da5cb5b1461061a576103c3565b80632726b506116102ef57806348cd4cb1116102825780635312ea8e116102515780635312ea8e1461059e578063550d5000146105b15780635c975abb146105d1578063632447c9146105d9576103c3565b806348cd4cb1146105735780634e71e0c81461057b5780634ef7c86114610583578063503676d41461058b576103c3565b8063313ce567116102be578063313ce5671461053057806336cf7c8714610545578063395093511461054d57806340c10f1914610560576103c3565b80632726b506146104ed5780632e1a7d4d1461050d5780632ee60581146105205780632f48ab7d14610528576103c3565b8063095ea7b31161036757806315c383db1161033657806315c383db146104b757806315e64d6d146104bf57806318160ddd146104d257806323b872dd146104da576103c3565b8063095ea7b31461045c5780630ca296a71461047c5780631068361f1461048f5780631493161c146104a2576103c3565b806306fdde03116103a357806306fdde03146104195780630700037d1461042e578063078dfbe714610441578063081e3eda14610454576103c3565b80628cc262146103c8578062aeef8a146103f157806301f11a6914610406575b600080fd5b6103db6103d6366004612d53565b6107e7565b6040516103e89190613533565b60405180910390f35b6104046103ff366004612fa7565b6108a3565b005b610404610414366004612f0c565b610acf565b610421610bb5565b6040516103e891906130c6565b6103db61043c366004612d53565b610c4b565b61040461044f366004612de7565b610c5d565b6103db610d43565b61046f61046a366004612e31565b610d49565b6040516103e8919061308a565b61040461048a366004612e78565b610d67565b61040461049d366004612d6f565b610f0e565b6104aa611043565b6040516103e89190612fee565b6103db611052565b6103db6104cd366004612edc565b611058565b6103db6110a1565b61046f6104e8366004612da7565b6110a7565b6105006104fb366004612e31565b61112e565b6040516103e89190613512565b61040461051b366004612edc565b611184565b6103db6113b2565b6104aa6113b8565b6105386113c7565b6040516103e89190613565565b6104aa6113d0565b61046f61055b366004612e31565b6113df565b61046f61056e366004612e31565b61142d565b6103db611464565b61040461146a565b6104aa6114f7565b6103db610599366004612edc565b611506565b6104046105ac366004612edc565b611527565b6105c46105bf366004612edc565b6116ef565b6040516103e89190613062565b61046f61174a565b6103db6105e7366004612d53565b611753565b610404611879565b6103db610602366004612d53565b6118c0565b6103db610615366004612edc565b6118db565b6104aa61191b565b610635610630366004612f36565b61192a565b6040516103e892919061353c565b6104216119cd565b6105c4610659366004612edc565b611a2e565b61040461066c366004612e31565b611a89565b6103db611ac1565b610404610687366004612edc565b611ac7565b61046f61069a366004612e31565b611b01565b6103db6106ad366004612d53565b611b69565b61046f6106c0366004612e31565b611b7b565b6106356106d3366004612d6f565b611b8f565b6106eb6106e6366004612edc565b611c34565b6040516103e8959493929190613095565b6103db61070a366004612edc565b611c83565b6104aa611c95565b610404610725366004612f7a565b611ca4565b6104aa611cf8565b610404611d07565b610635610748366004612d53565b611d7d565b6103db61075b366004612edc565b611de1565b61063561076e366004612edc565b611e06565b610404611f42565b6103db610789366004612edc565b611f80565b6103db61079c366004612d6f565b611fa3565b6103db611fce565b6104046107b7366004612d53565b611fd4565b6104aa612020565b6103db61202f565b61046f612035565b6103db6107e2366004612e31565b612043565b60008060006107f8600f544361192a565b915091506000610838600d546108326a0422ca8b0a00a4250000006108328661082c6012548a6120ee90919063ffffffff16565b906120ee565b9061212f565b6001600160a01b0386166000908152601a6020908152604080832054601b909252909120549192506108989161089290670de0b6b3a7640000906108329061088990610883886118db565b90612171565b61082c8b6118c0565b906121b3565b93505050505b919050565b60115460ff16156108cf5760405162461bcd60e51b81526004016108c69061315f565b60405180910390fd5b6000601884815481106108de57fe5b90600052602060002090600a020190508060010160149054906101000a900460ff1661091c5760405162461bcd60e51b81526004016108c690613273565b61092533611753565b5060008060006109368486886121d8565b60175492955090935091506001600160a01b0316156109b4576017546040516308e4af9b60e31b81526001600160a01b03909116906347257cd8906109819033908590600401613002565b600060405180830381600087803b15801561099b57600080fd5b505af11580156109af573d6000803e3d6000fd5b505050505b336000908152601b602090815260408083208a84526001019091529020546109dc90846121b3565b336000908152601b602090815260408083208b845260019081019092529091209182550154610a0b90836121b3565b336000908152601b602090815260408083208b845260019081019092529091209081019190915560020154610a4090826121b3565b336000908152601b602090815260408083208b84526001019091529020600201556003840154610a7090826121b3565b6003850155610a7f338261242e565b336001600160a01b03167f7162984403f6c73c8639375d45a9187dfd04602231bd8e587c415718b5f7e5f988858585604051610abe949392919061354a565b60405180910390a250505050505050565b6000546001600160a01b03163314610af95760405162461bcd60e51b81526004016108c6906132ff565b8360188681548110610b0757fe5b90600052602060002090600a020160010160146101000a81548160ff0219169083151502179055508260188681548110610b3d57fe5b90600052602060002090600a0201600201819055508160188681548110610b6057fe5b90600052602060002090600a0201600401906003610b7f929190612c50565b508060188681548110610b8e57fe5b90600052602060002090600a0201600701906003610bad929190612c50565b505050505050565b60058054604080516020601f6002600019610100600188161502019095169490940493840181900481028201810190925282815260609390929091830182828015610c415780601f10610c1657610100808354040283529160200191610c41565b820191906000526020600020905b815481529060010190602001808311610c2457829003601f168201915b5050505050905090565b601a6020526000908152604090205481565b6000546001600160a01b03163314610c875760405162461bcd60e51b81526004016108c6906132ff565b8115610d22576001600160a01b038316151580610ca15750805b610cbd5760405162461bcd60e51b81526004016108c690613244565b600080546040516001600160a01b03808716939216917f8be0079c531659141344cd1fd0a4f28419497f9722a3daafe3b4186f6b6457e091a3600080546001600160a01b0385166001600160a01b031991821617909155600180549091169055610d3e565b600180546001600160a01b0319166001600160a01b0385161790555b505050565b60185490565b6000610d5d610d566124ee565b84846124f2565b5060015b92915050565b6000546001600160a01b03163314610d915760405162461bcd60e51b81526004016108c6906132ff565b6040805160e0810182526001600160a01b0380881682528681166020830190815260019383018481526060840188815260006080860181815260a087018a815260c088018a905260188054998a0181559092528651600a9098027fb13d2d76d1f4b7be834882e410b3e3a8afaf69f83600ae24db354391d2378d2e810180549988166001600160a01b03199a8b1617815595517fb13d2d76d1f4b7be834882e410b3e3a8afaf69f83600ae24db354391d2378d2f8201805496511515600160a01b0260ff60a01b199290991696909a16959095179490941695909517909655517fb13d2d76d1f4b7be834882e410b3e3a8afaf69f83600ae24db354391d2378d3082015591517fb13d2d76d1f4b7be834882e410b3e3a8afaf69f83600ae24db354391d2378d318301559251919291610eee917fb13d2d76d1f4b7be834882e410b3e3a8afaf69f83600ae24db354391d2378d3201906003612c50565b5060c0820151610f049060078301906003612c50565b5050505050505050565b6000546001600160a01b03163314610f385760405162461bcd60e51b81526004016108c6906132ff565b6040516370a0823160e01b815282906000906001600160a01b038316906370a0823190610f69903090600401612fee565b60206040518083038186803b158015610f8157600080fd5b505afa158015610f95573d6000803e3d6000fd5b505050506040513d601f19601f82011682018060405250810190610fb99190612ef4565b60405163a9059cbb60e01b81529091506001600160a01b0383169063a9059cbb90610fea9086908590600401613002565b602060405180830381600087803b15801561100457600080fd5b505af1158015611018573d6000803e3d6000fd5b505050506040513d601f19601f8201168201806040525081019061103c9190612e5c565b5050505050565b6016546001600160a01b031681565b60095481565b600c81046000818152601960205260408120549091908261107883611de1565b9050600c8506606481900a61108f8483850a6120ee565b8161109657fe5b049695505050505050565b60045490565b60006110b48484846125a6565b611124846110c06124ee565b61111f8560405180606001604052806028815260200161360e602891396001600160a01b038a166000908152600360205260408120906110fe6124ee565b6001600160a01b0316815260208101919091526040016000205491906126bb565b6124f2565b5060019392505050565b611136612c8e565b506001600160a01b03919091166000908152601b6020908152604080832093835260019384018252918290208251606081018452815481529381015491840191909152600201549082015290565b60115460ff16156111a75760405162461bcd60e51b81526004016108c69061315f565b6111af611d07565b336000908152601b602090815260408083208484526001808201909352908320805492810180546002830180549387905591869055908590556018805493959193879081106111fa57fe5b90600052602060002090600a020190508181600301541161121c576000611224565b818160030154035b60038201556017546001600160a01b03161561129f5760175460405163fe8f376960e01b81526001600160a01b039091169063fe8f37699061126c9033908690600401613002565b600060405180830381600087803b15801561128657600080fd5b505af115801561129a573d6000803e3d6000fd5b505050505b60006127106112b9600954876120ee90919063ffffffff16565b816112c057fe5b04905060006127106112dd600a54876120ee90919063ffffffff16565b816112e457fe5b049050611307336112f58885612171565b85546001600160a01b031691906126e7565b61132a336113158784612171565b60018601546001600160a01b031691906126e7565b825461133f906001600160a01b03168361273d565b6001830154611357906001600160a01b03168261273d565b611361338561278c565b336001600160a01b03167fe08737ac48a1dab4b1a46c7dc9398bd5bfc6d7ad6fabb7cd8caa254de14def35898888886040516113a0949392919061354a565b60405180910390a25050505050505050565b60125481565b6015546001600160a01b031681565b60075460ff1690565b6014546001600160a01b031681565b6000610d5d6113ec6124ee565b8461111f85600360006113fd6124ee565b6001600160a01b03908116825260208083019390935260409182016000908120918c1681529252902054906121b3565b6017546000906001600160a01b0316331461145a5760405162461bcd60e51b81526004016108c690613293565b610d61838361242e565b60085481565b6001546001600160a01b03163381146114955760405162461bcd60e51b81526004016108c690613334565b600080546040516001600160a01b03808516939216917f8be0079c531659141344cd1fd0a4f28419497f9722a3daafe3b4186f6b6457e091a3600080546001600160a01b039092166001600160a01b0319928316179055600180549091169055565b6017546001600160a01b031681565b6000610d61620d2f0061082c846001016008546120ee90919063ffffffff16565b60115460ff161561154a5760405162461bcd60e51b81526004016108c69061315f565b336000908152601b6020908152604080832084845260018082019093529083208054928101805460028301805493879055918690559085905560188054939591938790811061159557fe5b90600052602060002090600a02019050818160030154116115b75760006115bf565b818160030154035b60038201556017546001600160a01b03161561163a5760175460405163fe8f376960e01b81526001600160a01b039091169063fe8f3769906116079033908690600401613002565b600060405180830381600087803b15801561162157600080fd5b505af1158015611635573d6000803e3d6000fd5b505050505b6000612710611654600954876120ee90919063ffffffff16565b8161165b57fe5b0490506000612710611678600a54876120ee90919063ffffffff16565b8161167f57fe5b049050611690336112f58885612171565b61169e336113158784612171565b82546116b3906001600160a01b03168361273d565b60018301546116cb906001600160a01b03168261273d565b6116d5338561278c565b5050336000908152601a6020526040812055505050505050565b6116f7612caf565b6018828154811061170457fe5b6000918252602090912060408051606081019182905292600a029091016007019060039082845b81548152602001906001019080831161172b5750505050509050919050565b60115460ff1681565b600060085443116117765760405162461bcd60e51b81526004016108c69061313c565b6000611780612862565b5091505061178d816118db565b60105543600f556001600160a01b03831615611820576001600160a01b0383166000908152601a6020908152604080832054601b909252909120546010546117f4929161089291670de0b6b3a764000091610832916117eb91612171565b61082c896118c0565b6001600160a01b0384166000908152601a6020908152604080832093909355601054601b909152919020555b6001600160a01b0383166000908152601a6020526040908190205490517f023b2764fdc69b1eb3c97dd5b1fe33df596e55cbd731ee8b0e3b9758f8f2686d9161186b91869190613002565b60405180910390a150919050565b6000546001600160a01b031633146118a35760405162461bcd60e51b81526004016108c6906132ff565b6011805461ff001981166101009182900460ff1615909102179055565b6001600160a01b031660009081526002602052604090205490565b60006118e56110a1565b6118f2575060105461089e565b610d616119126119006110a1565b61083285670de0b6b3a76400006120ee565b601054906121b3565b6000546001600160a01b031681565b600080600061193885611f80565b9050600061194585611f80565b9050855b81831161199757600061195b84611506565b9050808710156119685750855b61198861198161197786611058565b61082c8486612171565b87906121b3565b95506001909301929050611949565b61199f6110a1565b93506a0422ca8b0a00a4250000008411156119c3576a0422ca8b0a00a42500000093505b5050509250929050565b60068054604080516020601f6002600019610100600188161502019095169490940493840181900481028201810190925282815260609390929091830182828015610c415780601f10610c1657610100808354040283529160200191610c41565b611a36612caf565b60188281548110611a4357fe5b6000918252602091829020604080516060810191829052600a909302909101600481018054845292936003929160050190850180831161172b5750505050509050919050565b6017546001600160a01b03163314611ab35760405162461bcd60e51b81526004016108c690613293565b611abd828261278c565b5050565b600f5481565b6000546001600160a01b03163314611af15760405162461bcd60e51b81526004016108c6906132ff565b611afb6000611753565b50601255565b6000610d5d611b0e6124ee565b8461111f856040518060600160405280602581526020016136366025913960036000611b386124ee565b6001600160a01b03908116825260208083019390935260409182016000908120918d168152925290205491906126bb565b601b6020526000908152604090205481565b6000610d5d611b886124ee565b84846125a6565b60135460405163b9b2e68f60e01b8152600091829173__$1139795562d0ae445497d3fa43a7ed0192$__9163b9b2e68f91611bda916001600160a01b0316908890889060040161301b565b604080518083038186803b158015611bf157600080fd5b505af4158015611c05573d6000803e3d6000fd5b505050506040513d601f19601f82011682018060405250810190611c299190612f57565b915091509250929050565b60188181548110611c4157fe5b60009182526020909120600a909102018054600182015460028301546003909301546001600160a01b03928316945091811692600160a01b90910460ff169185565b60196020526000908152604090205481565b600b546001600160a01b031681565b6000546001600160a01b03163314611cce5760405162461bcd60e51b81526004016108c6906132ff565b600992909255600a55600b80546001600160a01b0319166001600160a01b03909216919091179055565b6013546001600160a01b031681565b611d1033611753565b50336000908152601a60205260409020548015611d4157336000818152601a6020526040812055611d4190826128e8565b7fbc84835063c693975166f00cffb19f01a94c2db55b1bf259238c5da3594e50663382604051611d72929190613002565b60405180910390a150565b60008060005b601854811015611dcc576001600160a01b0384166000908152601b60209081526040808320848452600101909152902060020154611dc29084906121b3565b9250600101611d83565b50611dda82610883856118c0565b9050915091565b600080600e548310611df557506001611dfd565b82600e540390505b60640392915050565b60135460165460155460405163b9b2e68f60e01b815260009384938493849373__$1139795562d0ae445497d3fa43a7ed0192$__9363b9b2e68f93611e5f936001600160a01b039283169391831692169060040161301b565b604080518083038186803b158015611e7657600080fd5b505af4158015611e8a573d6000803e3d6000fd5b505050506040513d601f19601f82011682018060405250810190611eae9190612f57565b91509150600060188681548110611ec157fe5b90600052602060002090600a020190508261271082600401600260038110611ee557fe5b015483600201548560125462a066800202020281611eff57fe5b0481611f0757fe5b049450806003015493506000611f1b6110a1565b90508015611f34578085870281611f2e57fe5b04611f37565b60005b955050505050915091565b6000546001600160a01b03163314611f6c5760405162461bcd60e51b81526004016108c6906132ff565b6011805460ff19811660ff90911615179055565b600060085482111561089e57620d2f00600854830381611f9c57fe5b0492915050565b6001600160a01b03918216600090815260036020908152604080832093909416825291909152205490565b60105481565b6000546001600160a01b03163314611ffe5760405162461bcd60e51b81526004016108c6906132ff565b601780546001600160a01b0319166001600160a01b0392909216919091179055565b6001546001600160a01b031681565b600a5481565b601154610100900460ff1681565b6000806000612054600f544361192a565b915091506000612088600d546108326a0422ca8b0a00a4250000006108328661082c6012548a6120ee90919063ffffffff16565b6001600160a01b0387166000818152601b602081815260408084208b855260018101835290842060020154949093525254919250906120e390670de0b6b3a764000090610832906120dc90610883876118db565b84906120ee565b979650505050505050565b6000826120fd57506000610d61565b8282028284828161210a57fe5b04146121285760405162461bcd60e51b81526004016108c6906132be565b9392505050565b600061212883836040518060400160405280601a81526020017f536166654d6174683a206469766973696f6e206279207a65726f000000000000815250612a87565b600061212883836040518060400160405280601e81526020017f536166654d6174683a207375627472616374696f6e206f766572666c6f7700008152506126bb565b6000828201838110156121285760405162461bcd60e51b81526004016108c6906131d8565b601354835460155460405163b9b2e68f60e01b8152600093849384938493849373__$1139795562d0ae445497d3fa43a7ed0192$__9363b9b2e68f93612234936001600160a01b0393841693928316929091169060040161301b565b604080518083038186803b15801561224b57600080fd5b505af415801561225f573d6000803e3d6000fd5b505050506040513d601f19601f820116820180604052508101906122839190612f57565b60135460018b015460155460405163b9b2e68f60e01b8152949650929450600093849373__$1139795562d0ae445497d3fa43a7ed0192$__9363b9b2e68f936122e2936001600160a01b0392831693918316929091169060040161301b565b604080518083038186803b1580156122f957600080fd5b505af415801561230d573d6000803e3d6000fd5b505050506040513d601f19601f820116820180604052508101906123319190612f57565b91509150600c5461235a846108328d6007018d6003811061234e57fe5b015461082c8d8a6120ee565b8161236157fe5b049650600c546123948261083261238a8e6007018e6003811061238057fe5b0154606490612171565b61082c8d886120ee565b8161239b57fe5b8b5491900496506123b7906001600160a01b031633308a612abe565b60018a01546123d1906001600160a01b0316333089612abe565b82158015906123df57508015155b6123fb5760405162461bcd60e51b81526004016108c69061347d565b6127108a6004018a6003811061240d57fe5b01548b600201548a02028161241e57fe5b0494505050505093509350939050565b6001600160a01b0382166124545760405162461bcd60e51b81526004016108c6906134db565b61246060008383612adf565b60045461246d90826121b3565b6004556001600160a01b03821660009081526002602052604090205461249390826121b3565b6001600160a01b0383166000818152600260205260408082209390935591519091907fddf252ad1be2c89b69c2b068fc378daa952ba7f163c4a11628f55a4df523b3ef906124e2908590613533565b60405180910390a35050565b3390565b6001600160a01b0383166125185760405162461bcd60e51b81526004016108c6906133ef565b6001600160a01b03821661253e5760405162461bcd60e51b81526004016108c690613196565b6001600160a01b0380841660008181526003602090815260408083209487168084529490915290819020849055517f8c5be1e5ebec7d5bd14f71427d1e84f3dd0314c0f7b2291e5b200ac8c7c3b92590612599908590613533565b60405180910390a3505050565b6001600160a01b0383166125cc5760405162461bcd60e51b81526004016108c6906133aa565b6001600160a01b0382166125f25760405162461bcd60e51b81526004016108c6906130f9565b6125fd838383612adf565b61263a816040518060600160405280602681526020016135e8602691396001600160a01b03861660009081526002602052604090205491906126bb565b6001600160a01b03808516600090815260026020526040808220939093559084168152205461266990826121b3565b6001600160a01b0380841660008181526002602052604090819020939093559151908516907fddf252ad1be2c89b69c2b068fc378daa952ba7f163c4a11628f55a4df523b3ef90612599908590613533565b600081848411156126df5760405162461bcd60e51b81526004016108c691906130c6565b505050900390565b610d3e8363a9059cbb60e01b8484604051602401612706929190613002565b60408051601f198184030181529190526020810180516001600160e01b03166001600160e01b031990931692909217909152612b6e565b6016546001600160a01b03838116911614156127725760145461276d906001600160a01b038481169116836126e7565b611abd565b600b54611abd906001600160a01b038481169116836126e7565b6001600160a01b0382166127b25760405162461bcd60e51b81526004016108c690613369565b6127be82600083612adf565b6127fb816040518060600160405280602281526020016135c6602291396001600160a01b03851660009081526002602052604090205491906126bb565b6001600160a01b0383166000908152600260205260409020556004546128219082612171565b6004556040516000906001600160a01b038416907fddf252ad1be2c89b69c2b068fc378daa952ba7f163c4a11628f55a4df523b3ef906124e2908590613533565b6000806000806000612876600f544361192a565b91509150612895600d54610832601254856120ee90919063ffffffff16565b94506128b06a0422ca8b0a00a42500000061083287846120ee565b93506128bc8585612171565b925082156128e1576014546016546128e1916001600160a01b039182169116856126e7565b5050909192565b6016546040516370a0823160e01b81526000916001600160a01b0316906370a0823190612919903090600401612fee565b60206040518083038186803b15801561293157600080fd5b505afa158015612945573d6000803e3d6000fd5b505050506040513d601f19601f820116820180604052508101906129699190612ef4565b9050808211156129fd5760165460405163a9059cbb60e01b81526001600160a01b039091169063a9059cbb906129a59086908590600401613002565b602060405180830381600087803b1580156129bf57600080fd5b505af11580156129d3573d6000803e3d6000fd5b505050506040513d601f19601f820116820180604052508101906129f79190612e5c565b50610d3e565b60165460405163a9059cbb60e01b81526001600160a01b039091169063a9059cbb90612a2f9086908690600401613002565b602060405180830381600087803b158015612a4957600080fd5b505af1158015612a5d573d6000803e3d6000fd5b505050506040513d601f19601f82011682018060405250810190612a819190612e5c565b50505050565b60008183612aa85760405162461bcd60e51b81526004016108c691906130c6565b506000838581612ab457fe5b0495945050505050565b612a81846323b872dd60e01b8585856040516024016127069392919061303e565b60115460ff1615612b025760405162461bcd60e51b81526004016108c69061315f565b6001600160a01b0383163014801590612b2957506017546001600160a01b03848116911614155b15612b3957612b3783611753565b505b6001600160a01b0382163014801590612b6057506017546001600160a01b03838116911614155b15610d3e57612a8182611753565b612b7782612c4a565b612b935760405162461bcd60e51b81526004016108c6906134a4565b60006060836001600160a01b031683604051612baf9190612fd2565b6000604051808303816000865af19150503d8060008114612bec576040519150601f19603f3d011682016040523d82523d6000602084013e612bf1565b606091505b509150915081612c135760405162461bcd60e51b81526004016108c69061320f565b805115612a815780806020019051810190612c2e9190612e5c565b612a815760405162461bcd60e51b81526004016108c690613433565b3b151590565b8260038101928215612c7e579160200282015b82811115612c7e578251825591602001919060010190612c63565b50612c8a929150612ccd565b5090565b60405180606001604052806000815260200160008152602001600081525090565b60405180606001604052806003906020820280368337509192915050565b5b80821115612c8a5760008155600101612cce565b600082601f830112612cf2578081fd5b6040516060810181811067ffffffffffffffff82111715612d11578283fd5b6040529050808260608101851015612d2857600080fd5b60005b6003811015612d4a578135835260209283019290910190600101612d2b565b50505092915050565b600060208284031215612d64578081fd5b81356121288161359f565b60008060408385031215612d81578081fd5b8235612d8c8161359f565b91506020830135612d9c8161359f565b809150509250929050565b600080600060608486031215612dbb578081fd5b8335612dc68161359f565b92506020840135612dd68161359f565b929592945050506040919091013590565b600080600060608486031215612dfb578283fd5b8335612e068161359f565b92506020840135612e16816135b7565b91506040840135612e26816135b7565b809150509250925092565b60008060408385031215612e43578182fd5b8235612e4e8161359f565b946020939093013593505050565b600060208284031215612e6d578081fd5b8151612128816135b7565b60008060008060006101208688031215612e90578081fd5b8535612e9b8161359f565b94506020860135612eab8161359f565b935060408601359250612ec18760608801612ce2565b9150612ed08760c08801612ce2565b90509295509295909350565b600060208284031215612eed578081fd5b5035919050565b600060208284031215612f05578081fd5b5051919050565b60008060008060006101208688031215612f24578081fd5b853594506020860135612eab816135b7565b60008060408385031215612f48578182fd5b50508035926020909101359150565b60008060408385031215612f69578182fd5b505080516020909101519092909150565b600080600060608486031215612f8e578081fd5b83359250602084013591506040840135612e268161359f565b600080600060608486031215612fbb578081fd5b505081359360208301359350604090920135919050565b60008251612fe4818460208701613573565b9190910192915050565b6001600160a01b0391909116815260200190565b6001600160a01b03929092168252602082015260400190565b6001600160a01b0393841681529183166020830152909116604082015260600190565b6001600160a01b039384168152919092166020820152604081019190915260600190565b60608101818360005b6003811015612d4a57815183526020928301929091019060010161306b565b901515815260200190565b6001600160a01b03958616815293909416602084015290151560408301526060820152608081019190915260a00190565b60006020825282518060208401526130e5816040850160208701613573565b601f01601f19169190910160400192915050565b60208082526023908201527f45524332303a207472616e7366657220746f20746865207a65726f206164647260408201526265737360e81b606082015260800190565b6020808252600990820152681b9bdd081cdd185c9d60ba1b604082015260600190565b60208082526019908201527f4d696e696e6720686173206265656e2073757370656e64656400000000000000604082015260600190565b60208082526022908201527f45524332303a20617070726f766520746f20746865207a65726f206164647265604082015261737360f01b606082015260800190565b6020808252601b908201527f536166654d6174683a206164646974696f6e206f766572666c6f770000000000604082015260600190565b6020808252818101527f5361666545524332303a206c6f772d6c6576656c2063616c6c206661696c6564604082015260600190565b6020808252601590820152744f776e61626c653a207a65726f206164647265737360581b604082015260600190565b60208082526006908201526518db1bdcd95960d21b604082015260600190565b602080825260119082015270666f7262696464656e206f70657261746560781b604082015260600190565b60208082526021908201527f536166654d6174683a206d756c7469706c69636174696f6e206f766572666c6f6040820152607760f81b606082015260800190565b6020808252818101527f4f776e61626c653a2063616c6c6572206973206e6f7420746865206f776e6572604082015260600190565b6020808252818101527f4f776e61626c653a2063616c6c657220213d2070656e64696e67206f776e6572604082015260600190565b60208082526021908201527f45524332303a206275726e2066726f6d20746865207a65726f206164647265736040820152607360f81b606082015260800190565b60208082526025908201527f45524332303a207472616e736665722066726f6d20746865207a65726f206164604082015264647265737360d81b606082015260800190565b60208082526024908201527f45524332303a20617070726f76652066726f6d20746865207a65726f206164646040820152637265737360e01b606082015260800190565b6020808252602a908201527f5361666545524332303a204552433230206f7065726174696f6e20646964206e6040820152691bdd081cdd58d8d9595960b21b606082015260800190565b6020808252600d908201526c496e76616c696420707269636560981b604082015260600190565b6020808252601f908201527f5361666545524332303a2063616c6c20746f206e6f6e2d636f6e747261637400604082015260600190565b6020808252601f908201527f45524332303a206d696e7420746f20746865207a65726f206164647265737300604082015260600190565b81518152602080830151908201526040918201519181019190915260600190565b90815260200190565b918252602082015260400190565b93845260208401929092526040830152606082015260800190565b60ff91909116815260200190565b60005b8381101561358e578181015183820152602001613576565b83811115612a815750506000910152565b6001600160a01b03811681146135b457600080fd5b50565b80151581146135b457600080fdfe45524332303a206275726e20616d6f756e7420657863656564732062616c616e636545524332303a207472616e7366657220616d6f756e7420657863656564732062616c616e636545524332303a207472616e7366657220616d6f756e74206578636565647320616c6c6f77616e636545524332303a2064656372656173656420616c6c6f77616e63652062656c6f77207a65726fa2646970667358221220cc7e3664e6473471b5c66f9a16c842a45a5c8ac1ff89fa20f52ab023b95e29a564736f6c634300060c0033",
  "libraries": {
    "PriceLibrary": "0xF3ed1A8248EC2488b831835b98208f6329A89768"
  },
  "devdoc": {
    "kind": "dev",
    "methods": {
      "allowance(address,address)": {
        "details": "See {IERC20-allowance}."
      },
      "approve(address,uint256)": {
        "details": "See {IERC20-approve}. Requirements: - `spender` cannot be the zero address."
      },
      "balanceOf(address)": {
        "details": "See {IERC20-balanceOf}."
      },
      "decimals()": {
        "details": "Returns the number of decimals used to get its user representation. For example, if `decimals` equals `2`, a balance of `505` tokens should be displayed to a user as `5,05` (`505 / 10 ** 2`). Tokens usually opt for a value of 18, imitating the relationship between Ether and Wei. This is the value {ERC20} uses, unless {_setupDecimals} is called. NOTE: This information is only used for _display_ purposes: it in no way affects any of the arithmetic of the contract, including {IERC20-balanceOf} and {IERC20-transfer}."
      },
      "decreaseAllowance(address,uint256)": {
        "details": "Atomically decreases the allowance granted to `spender` by the caller. This is an alternative to {approve} that can be used as a mitigation for problems described in {IERC20-approve}. Emits an {Approval} event indicating the updated allowance. Requirements: - `spender` cannot be the zero address. - `spender` must have allowance for the caller of at least `subtractedValue`."
      },
      "increaseAllowance(address,uint256)": {
        "details": "Atomically increases the allowance granted to `spender` by the caller. This is an alternative to {approve} that can be used as a mitigation for problems described in {IERC20-approve}. Emits an {Approval} event indicating the updated allowance. Requirements: - `spender` cannot be the zero address."
      },
      "name()": {
        "details": "Returns the name of the token."
      },
      "symbol()": {
        "details": "Returns the symbol of the token, usually a shorter version of the name."
      },
      "totalSupply()": {
        "details": "See {IERC20-totalSupply}."
      },
      "transfer(address,uint256)": {
        "details": "See {IERC20-transfer}. Requirements: - `recipient` cannot be the zero address. - the caller must have a balance of at least `amount`."
      },
      "transferFrom(address,address,uint256)": {
        "details": "See {IERC20-transferFrom}. Emits an {Approval} event indicating the updated allowance. This is not required by the EIP. See the note at the beginning of {ERC20}. Requirements: - `sender` and `recipient` cannot be the zero address. - `sender` must have a balance of at least `amount`. - the caller must have allowance for ``sender``'s tokens of at least `amount`."
      }
    },
    "version": 1
  },
  "userdoc": {
    "kind": "user",
    "methods": {},
    "version": 1
  },
  "storageLayout": {
    "storage": [
      {
        "astId": 2972,
        "contract": "contracts/DomPool.sol:DomPool",
        "label": "owner",
        "offset": 0,
        "slot": "0",
        "type": "t_address"
      },
      {
        "astId": 2974,
        "contract": "contracts/DomPool.sol:DomPool",
        "label": "pendingOwner",
        "offset": 0,
        "slot": "1",
        "type": "t_address"
      },
      {
        "astId": 2059,
        "contract": "contracts/DomPool.sol:DomPool",
        "label": "_balances",
        "offset": 0,
        "slot": "2",
        "type": "t_mapping(t_address,t_uint256)"
      },
      {
        "astId": 2065,
        "contract": "contracts/DomPool.sol:DomPool",
        "label": "_allowances",
        "offset": 0,
        "slot": "3",
        "type": "t_mapping(t_address,t_mapping(t_address,t_uint256))"
      },
      {
        "astId": 2067,
        "contract": "contracts/DomPool.sol:DomPool",
        "label": "_totalSupply",
        "offset": 0,
        "slot": "4",
        "type": "t_uint256"
      },
      {
        "astId": 2069,
        "contract": "contracts/DomPool.sol:DomPool",
        "label": "_name",
        "offset": 0,
        "slot": "5",
        "type": "t_string_storage"
      },
      {
        "astId": 2071,
        "contract": "contracts/DomPool.sol:DomPool",
        "label": "_symbol",
        "offset": 0,
        "slot": "6",
        "type": "t_string_storage"
      },
      {
        "astId": 2073,
        "contract": "contracts/DomPool.sol:DomPool",
        "label": "_decimals",
        "offset": 0,
        "slot": "7",
        "type": "t_uint8"
      },
      {
        "astId": 103,
        "contract": "contracts/DomPool.sol:DomPool",
        "label": "startBlock",
        "offset": 0,
        "slot": "8",
        "type": "t_uint256"
      },
      {
        "astId": 106,
        "contract": "contracts/DomPool.sol:DomPool",
        "label": "feeA",
        "offset": 0,
        "slot": "9",
        "type": "t_uint256"
      },
      {
        "astId": 109,
        "contract": "contracts/DomPool.sol:DomPool",
        "label": "feeB",
        "offset": 0,
        "slot": "10",
        "type": "t_uint256"
      },
      {
        "astId": 111,
        "contract": "contracts/DomPool.sol:DomPool",
        "label": "feeOwner",
        "offset": 0,
        "slot": "11",
        "type": "t_address"
      },
      {
        "astId": 114,
        "contract": "contracts/DomPool.sol:DomPool",
        "label": "DIVISOR",
        "offset": 0,
        "slot": "12",
        "type": "t_uint256"
      },
      {
        "astId": 117,
        "contract": "contracts/DomPool.sol:DomPool",
        "label": "BASE_INIT",
        "offset": 0,
        "slot": "13",
        "type": "t_uint256"
      },
      {
        "astId": 120,
        "contract": "contracts/DomPool.sol:DomPool",
        "label": "BASE_RATE",
        "offset": 0,
        "slot": "14",
        "type": "t_uint256"
      },
      {
        "astId": 130,
        "contract": "contracts/DomPool.sol:DomPool",
        "label": "lastUpdateBlock",
        "offset": 0,
        "slot": "15",
        "type": "t_uint256"
      },
      {
        "astId": 132,
        "contract": "contracts/DomPool.sol:DomPool",
        "label": "rewardPerTokenStored",
        "offset": 0,
        "slot": "16",
        "type": "t_uint256"
      },
      {
        "astId": 135,
        "contract": "contracts/DomPool.sol:DomPool",
        "label": "paused",
        "offset": 0,
        "slot": "17",
        "type": "t_bool"
      },
      {
        "astId": 138,
        "contract": "contracts/DomPool.sol:DomPool",
        "label": "transferPaused",
        "offset": 1,
        "slot": "17",
        "type": "t_bool"
      },
      {
        "astId": 140,
        "contract": "contracts/DomPool.sol:DomPool",
        "label": "domsPerBlock",
        "offset": 0,
        "slot": "18",
        "type": "t_uint256"
      },
      {
        "astId": 142,
        "contract": "contracts/DomPool.sol:DomPool",
        "label": "factory",
        "offset": 0,
        "slot": "19",
        "type": "t_address"
      },
      {
        "astId": 145,
        "contract": "contracts/DomPool.sol:DomPool",
        "label": "dead",
        "offset": 0,
        "slot": "20",
        "type": "t_address"
      },
      {
        "astId": 147,
        "contract": "contracts/DomPool.sol:DomPool",
        "label": "usdt",
        "offset": 0,
        "slot": "21",
        "type": "t_address"
      },
      {
        "astId": 149,
        "contract": "contracts/DomPool.sol:DomPool",
        "label": "dom",
        "offset": 0,
        "slot": "22",
        "type": "t_contract(IERC20)2648"
      },
      {
        "astId": 151,
        "contract": "contracts/DomPool.sol:DomPool",
        "label": "inviter",
        "offset": 0,
        "slot": "23",
        "type": "t_contract(IInvite)2665"
      },
      {
        "astId": 154,
        "contract": "contracts/DomPool.sol:DomPool",
        "label": "pools",
        "offset": 0,
        "slot": "24",
        "type": "t_array(t_struct(Pool)101_storage)dyn_storage"
      },
      {
        "astId": 158,
        "contract": "contracts/DomPool.sol:DomPool",
        "label": "yinit",
        "offset": 0,
        "slot": "25",
        "type": "t_mapping(t_uint256,t_uint256)"
      },
      {
        "astId": 162,
        "contract": "contracts/DomPool.sol:DomPool",
        "label": "rewards",
        "offset": 0,
        "slot": "26",
        "type": "t_mapping(t_address,t_uint256)"
      },
      {
        "astId": 166,
        "contract": "contracts/DomPool.sol:DomPool",
        "label": "users",
        "offset": 0,
        "slot": "27",
        "type": "t_mapping(t_address,t_struct(User)82_storage)"
      }
    ],
    "types": {
      "t_address": {
        "encoding": "inplace",
        "label": "address",
        "numberOfBytes": "20"
      },
      "t_array(t_struct(Pool)101_storage)dyn_storage": {
        "base": "t_struct(Pool)101_storage",
        "encoding": "dynamic_array",
        "label": "struct DomPool.Pool[]",
        "numberOfBytes": "32"
      },
      "t_array(t_uint256)3_storage": {
        "base": "t_uint256",
        "encoding": "inplace",
        "label": "uint256[3]",
        "numberOfBytes": "96"
      },
      "t_bool": {
        "encoding": "inplace",
        "label": "bool",
        "numberOfBytes": "1"
      },
      "t_contract(IERC20)2648": {
        "encoding": "inplace",
        "label": "contract IERC20",
        "numberOfBytes": "20"
      },
      "t_contract(IInvite)2665": {
        "encoding": "inplace",
        "label": "contract IInvite",
        "numberOfBytes": "20"
      },
      "t_mapping(t_address,t_mapping(t_address,t_uint256))": {
        "encoding": "mapping",
        "key": "t_address",
        "label": "mapping(address => mapping(address => uint256))",
        "numberOfBytes": "32",
        "value": "t_mapping(t_address,t_uint256)"
      },
      "t_mapping(t_address,t_struct(User)82_storage)": {
        "encoding": "mapping",
        "key": "t_address",
        "label": "mapping(address => struct DomPool.User)",
        "numberOfBytes": "32",
        "value": "t_struct(User)82_storage"
      },
      "t_mapping(t_address,t_uint256)": {
        "encoding": "mapping",
        "key": "t_address",
        "label": "mapping(address => uint256)",
        "numberOfBytes": "32",
        "value": "t_uint256"
      },
      "t_mapping(t_uint256,t_struct(DepositInfo)75_storage)": {
        "encoding": "mapping",
        "key": "t_uint256",
        "label": "mapping(uint256 => struct DomPool.DepositInfo)",
        "numberOfBytes": "32",
        "value": "t_struct(DepositInfo)75_storage"
      },
      "t_mapping(t_uint256,t_uint256)": {
        "encoding": "mapping",
        "key": "t_uint256",
        "label": "mapping(uint256 => uint256)",
        "numberOfBytes": "32",
        "value": "t_uint256"
      },
      "t_string_storage": {
        "encoding": "bytes",
        "label": "string",
        "numberOfBytes": "32"
      },
      "t_struct(DepositInfo)75_storage": {
        "encoding": "inplace",
        "label": "struct DomPool.DepositInfo",
        "members": [
          {
            "astId": 70,
            "contract": "contracts/DomPool.sol:DomPool",
            "label": "amountA",
            "offset": 0,
            "slot": "0",
            "type": "t_uint256"
          },
          {
            "astId": 72,
            "contract": "contracts/DomPool.sol:DomPool",
            "label": "amountB",
            "offset": 0,
            "slot": "1",
            "type": "t_uint256"
          },
          {
            "astId": 74,
            "contract": "contracts/DomPool.sol:DomPool",
            "label": "amountR",
            "offset": 0,
            "slot": "2",
            "type": "t_uint256"
          }
        ],
        "numberOfBytes": "96"
      },
      "t_struct(Pool)101_storage": {
        "encoding": "inplace",
        "label": "struct DomPool.Pool",
        "members": [
          {
            "astId": 84,
            "contract": "contracts/DomPool.sol:DomPool",
            "label": "tokenA",
            "offset": 0,
            "slot": "0",
            "type": "t_contract(IERC20)2648"
          },
          {
            "astId": 86,
            "contract": "contracts/DomPool.sol:DomPool",
            "label": "tokenB",
            "offset": 0,
            "slot": "1",
            "type": "t_contract(IERC20)2648"
          },
          {
            "astId": 88,
            "contract": "contracts/DomPool.sol:DomPool",
            "label": "status",
            "offset": 20,
            "slot": "1",
            "type": "t_bool"
          },
          {
            "astId": 90,
            "contract": "contracts/DomPool.sol:DomPool",
            "label": "maxWeight",
            "offset": 0,
            "slot": "2",
            "type": "t_uint256"
          },
          {
            "astId": 92,
            "contract": "contracts/DomPool.sol:DomPool",
            "label": "totalAmount",
            "offset": 0,
            "slot": "3",
            "type": "t_uint256"
          },
          {
            "astId": 96,
            "contract": "contracts/DomPool.sol:DomPool",
            "label": "minWeight",
            "offset": 0,
            "slot": "4",
            "type": "t_array(t_uint256)3_storage"
          },
          {
            "astId": 100,
            "contract": "contracts/DomPool.sol:DomPool",
            "label": "proportions",
            "offset": 0,
            "slot": "7",
            "type": "t_array(t_uint256)3_storage"
          }
        ],
        "numberOfBytes": "320"
      },
      "t_struct(User)82_storage": {
        "encoding": "inplace",
        "label": "struct DomPool.User",
        "members": [
          {
            "astId": 77,
            "contract": "contracts/DomPool.sol:DomPool",
            "label": "rewardPerTokenPaid",
            "offset": 0,
            "slot": "0",
            "type": "t_uint256"
          },
          {
            "astId": 81,
            "contract": "contracts/DomPool.sol:DomPool",
            "label": "deposits",
            "offset": 0,
            "slot": "1",
            "type": "t_mapping(t_uint256,t_struct(DepositInfo)75_storage)"
          }
        ],
        "numberOfBytes": "64"
      },
      "t_uint256": {
        "encoding": "inplace",
        "label": "uint256",
        "numberOfBytes": "32"
      },
      "t_uint8": {
        "encoding": "inplace",
        "label": "uint8",
        "numberOfBytes": "1"
      }
    }
  }
}