{
  "address": "0xf027b929dE64ceb88969e289F221060DE576C010",
  "abi": [
    {
      "inputs": [],
      "stateMutability": "nonpayable",
      "type": "constructor"
    },
    {
      "anonymous": false,
      "inputs": [
        {
          "indexed": true,
          "internalType": "address",
          "name": "",
          "type": "address"
        },
        {
          "indexed": false,
          "internalType": "uint256",
          "name": "",
          "type": "uint256"
        }
      ],
      "name": "Lock",
      "type": "event"
    },
    {
      "anonymous": false,
      "inputs": [
        {
          "indexed": true,
          "internalType": "address",
          "name": "previousOwner",
          "type": "address"
        },
        {
          "indexed": true,
          "internalType": "address",
          "name": "newOwner",
          "type": "address"
        }
      ],
      "name": "OwnershipTransferred",
      "type": "event"
    },
    {
      "anonymous": false,
      "inputs": [
        {
          "indexed": true,
          "internalType": "address",
          "name": "",
          "type": "address"
        },
        {
          "indexed": false,
          "internalType": "uint256",
          "name": "",
          "type": "uint256"
        }
      ],
      "name": "Unlock",
      "type": "event"
    },
    {
      "inputs": [],
      "name": "claimOwnership",
      "outputs": [],
      "stateMutability": "nonpayable",
      "type": "function"
    },
    {
      "inputs": [],
      "name": "cliff",
      "outputs": [
        {
          "internalType": "uint256",
          "name": "",
          "type": "uint256"
        }
      ],
      "stateMutability": "view",
      "type": "function"
    },
    {
      "inputs": [],
      "name": "duration",
      "outputs": [
        {
          "internalType": "uint256",
          "name": "",
          "type": "uint256"
        }
      ],
      "stateMutability": "view",
      "type": "function"
    },
    {
      "inputs": [
        {
          "internalType": "contract IERC20",
          "name": "token",
          "type": "address"
        },
        {
          "internalType": "uint256",
          "name": "amount",
          "type": "uint256"
        }
      ],
      "name": "lock",
      "outputs": [],
      "stateMutability": "nonpayable",
      "type": "function"
    },
    {
      "inputs": [
        {
          "internalType": "address",
          "name": "",
          "type": "address"
        },
        {
          "internalType": "address",
          "name": "",
          "type": "address"
        }
      ],
      "name": "locked",
      "outputs": [
        {
          "internalType": "uint256",
          "name": "amount",
          "type": "uint256"
        },
        {
          "internalType": "uint256",
          "name": "released",
          "type": "uint256"
        }
      ],
      "stateMutability": "view",
      "type": "function"
    },
    {
      "inputs": [],
      "name": "owner",
      "outputs": [
        {
          "internalType": "address",
          "name": "",
          "type": "address"
        }
      ],
      "stateMutability": "view",
      "type": "function"
    },
    {
      "inputs": [],
      "name": "pendingOwner",
      "outputs": [
        {
          "internalType": "address",
          "name": "",
          "type": "address"
        }
      ],
      "stateMutability": "view",
      "type": "function"
    },
    {
      "inputs": [
        {
          "internalType": "uint256",
          "name": "_cliff",
          "type": "uint256"
        },
        {
          "internalType": "uint256",
          "name": "_duration",
          "type": "uint256"
        }
      ],
      "name": "setDuration",
      "outputs": [],
      "stateMutability": "nonpayable",
      "type": "function"
    },
    {
      "inputs": [],
      "name": "start",
      "outputs": [
        {
          "internalType": "uint256",
          "name": "",
          "type": "uint256"
        }
      ],
      "stateMutability": "view",
      "type": "function"
    },
    {
      "inputs": [
        {
          "internalType": "address",
          "name": "newOwner",
          "type": "address"
        },
        {
          "internalType": "bool",
          "name": "direct",
          "type": "bool"
        },
        {
          "internalType": "bool",
          "name": "renounce",
          "type": "bool"
        }
      ],
      "name": "transferOwnership",
      "outputs": [],
      "stateMutability": "nonpayable",
      "type": "function"
    },
    {
      "inputs": [
        {
          "internalType": "contract IERC20",
          "name": "token",
          "type": "address"
        }
      ],
      "name": "unlock",
      "outputs": [],
      "stateMutability": "nonpayable",
      "type": "function"
    }
  ],
  "transactionHash": "0xaf99bd4b50c6d20b2e4b5af32197cbd45603f70995b6a8605fb1b66e450c3f61",
  "args": [],
  "solcInputHash": "e1e4dc9c11a1ee2d9c196f0a87b11c27",
  "bytecode": "0x608060405234801561001057600080fd5b50600080546001600160a01b0319163390811782556040519091907f8be0079c531659141344cd1fd0a4f28419497f9722a3daafe3b4186f6b6457e0908290a343600355610cfa806100636000396000f3fe608060405234801561001057600080fd5b50600436106100a95760003560e01c80634e71e0c8116100715780634e71e0c81461015a5780638da5cb5b14610162578063be9a655514610186578063cd7ea0951461018e578063db20266f146101b1578063e30c3978146101f8576100a9565b8063078dfbe7146100ae5780630fb5a6b4146100e657806313d033c014610100578063282d3fdf146101085780632f6c493c14610134575b600080fd5b6100e4600480360360608110156100c457600080fd5b506001600160a01b03813516906020810135151590604001351515610200565b005b6100ee610348565b60408051918252519081900360200190f35b6100ee61034e565b6100e46004803603604081101561011e57600080fd5b506001600160a01b038135169060200135610354565b6100e46004803603602081101561014a57600080fd5b50356001600160a01b0316610459565b6100e46105a5565b61016a610667565b604080516001600160a01b039092168252519081900360200190f35b6100ee610676565b6100e4600480360360408110156101a457600080fd5b508035906020013561067c565b6101df600480360360408110156101c757600080fd5b506001600160a01b03813581169160200135166106f1565b6040805192835260208301919091528051918290030190f35b61016a610715565b6000546001600160a01b0316331461025f576040805162461bcd60e51b815260206004820181905260248201527f4f776e61626c653a2063616c6c6572206973206e6f7420746865206f776e6572604482015290519081900360640190fd5b8115610327576001600160a01b0383161515806102795750805b6102c2576040805162461bcd60e51b81526020600482015260156024820152744f776e61626c653a207a65726f206164647265737360581b604482015290519081900360640190fd5b600080546040516001600160a01b03808716939216917f8be0079c531659141344cd1fd0a4f28419497f9722a3daafe3b4186f6b6457e091a3600080546001600160a01b0385166001600160a01b031991821617909155600180549091169055610343565b600180546001600160a01b0319166001600160a01b0385161790555b505050565b60045481565b60025481565b6001600160a01b038216600090815260056020908152604080832033845290915290208054156103b9576040805162461bcd60e51b815260206004820152600b60248201526a1a185d99481b1bd8dad95960aa1b604482015290519081900360640190fd5b6002544310610406576040805162461bcd60e51b815260206004820152601460248201527348617320626567756e20746f2072656c6561736560601b604482015290519081900360640190fd5b81815561041e6001600160a01b038416333085610724565b60408051838152905133917f625fed9875dada8643f2418b838ae0bc78d9a148a18eee4ee1979ff0f3f5d427919081900360200190a2505050565b6001600160a01b038116600090815260056020908152604080832033845290915290208054600182015481116104c6576040805162461bcd60e51b815260206004820152600d60248201526c61667465722072656c6561736560981b604482015290519081900360640190fd5b6000600254431115610500576104fd6004546104f76104f06003544361078490919063ffffffff16565b85906107cf565b90610828565b90505b8181111561050b5750805b60006105548460010154604051806040016040528060168152602001756e6f7420656e6f75676820666f722072656c6561736560501b8152508461086a9092919063ffffffff16565b600185018390559050610568853383610901565b60408051828152905133917f6381d9813cabeb57471b5a7e05078e64845ccdb563146a6911d536f24ce960f1919081900360200190a25050505050565b6001546001600160a01b0316338114610605576040805162461bcd60e51b815260206004820181905260248201527f4f776e61626c653a2063616c6c657220213d2070656e64696e67206f776e6572604482015290519081900360640190fd5b600080546040516001600160a01b03808516939216917f8be0079c531659141344cd1fd0a4f28419497f9722a3daafe3b4186f6b6457e091a3600080546001600160a01b039092166001600160a01b0319928316179055600180549091169055565b6000546001600160a01b031681565b60035481565b6000546001600160a01b031633146106db576040805162461bcd60e51b815260206004820181905260248201527f4f776e61626c653a2063616c6c6572206973206e6f7420746865206f776e6572604482015290519081900360640190fd5b6003546106e890836109b3565b60025560045550565b60056020908152600092835260408084209091529082529020805460019091015482565b6001546001600160a01b031681565b604080516001600160a01b0380861660248301528416604482015260648082018490528251808303909101815260849091019091526020810180516001600160e01b03166323b872dd60e01b17905261077e908590610a0d565b50505050565b60006107c683836040518060400160405280601e81526020017f536166654d6174683a207375627472616374696f6e206f766572666c6f77000081525061086a565b90505b92915050565b6000826107de575060006107c9565b828202828482816107eb57fe5b04146107c65760405162461bcd60e51b8152600401808060200182810382526021815260200180610c7a6021913960400191505060405180910390fd5b60006107c683836040518060400160405280601a81526020017f536166654d6174683a206469766973696f6e206279207a65726f000000000000815250610bbc565b600081848411156108f95760405162461bcd60e51b81526004018080602001828103825283818151815260200191508051906020019080838360005b838110156108be5781810151838201526020016108a6565b50505050905090810190601f1680156108eb5780820380516001836020036101000a031916815260200191505b509250505060405180910390fd5b505050900390565b6000836001600160a01b03166370a08231306040518263ffffffff1660e01b815260040180826001600160a01b0316815260200191505060206040518083038186803b15801561095057600080fd5b505afa158015610964573d6000803e3d6000fd5b505050506040513d602081101561097a57600080fd5b505190508082111561099f5761099a6001600160a01b0385168483610c21565b61077e565b61077e6001600160a01b0385168484610c21565b6000828201838110156107c6576040805162461bcd60e51b815260206004820152601b60248201527f536166654d6174683a206164646974696f6e206f766572666c6f770000000000604482015290519081900360640190fd5b610a1682610c73565b610a67576040805162461bcd60e51b815260206004820152601f60248201527f5361666545524332303a2063616c6c20746f206e6f6e2d636f6e747261637400604482015290519081900360640190fd5b60006060836001600160a01b0316836040518082805190602001908083835b60208310610aa55780518252601f199092019160209182019101610a86565b6001836020036101000a0380198251168184511680821785525050505050509050019150506000604051808303816000865af19150503d8060008114610b07576040519150601f19603f3d011682016040523d82523d6000602084013e610b0c565b606091505b509150915081610b63576040805162461bcd60e51b815260206004820181905260248201527f5361666545524332303a206c6f772d6c6576656c2063616c6c206661696c6564604482015290519081900360640190fd5b80511561077e57808060200190516020811015610b7f57600080fd5b505161077e5760405162461bcd60e51b815260040180806020018281038252602a815260200180610c9b602a913960400191505060405180910390fd5b60008183610c0b5760405162461bcd60e51b81526020600482018181528351602484015283519092839260449091019190850190808383600083156108be5781810151838201526020016108a6565b506000838581610c1757fe5b0495945050505050565b604080516001600160a01b038416602482015260448082018490528251808303909101815260649091019091526020810180516001600160e01b031663a9059cbb60e01b179052610343908490610a0d565b3b15159056fe536166654d6174683a206d756c7469706c69636174696f6e206f766572666c6f775361666545524332303a204552433230206f7065726174696f6e20646964206e6f742073756363656564a26469706673582212207fc7e43777437ef4362e3f21de7a7c27e72c65ec7222b28e433307192ac79bcd64736f6c634300060c0033",
  "devdoc": {
    "kind": "dev",
    "methods": {},
    "version": 1
  },
  "userdoc": {
    "kind": "user",
    "methods": {},
    "version": 1
  },
  "storageLayout": {
    "storage": [
      {
        "astId": 101,
        "contract": "contracts/Lock.sol:TokenVesting",
        "label": "owner",
        "offset": 0,
        "slot": "0",
        "type": "t_address"
      },
      {
        "astId": 103,
        "contract": "contracts/Lock.sol:TokenVesting",
        "label": "pendingOwner",
        "offset": 0,
        "slot": "1",
        "type": "t_address"
      },
      {
        "astId": 233,
        "contract": "contracts/Lock.sol:TokenVesting",
        "label": "cliff",
        "offset": 0,
        "slot": "2",
        "type": "t_uint256"
      },
      {
        "astId": 235,
        "contract": "contracts/Lock.sol:TokenVesting",
        "label": "start",
        "offset": 0,
        "slot": "3",
        "type": "t_uint256"
      },
      {
        "astId": 237,
        "contract": "contracts/Lock.sol:TokenVesting",
        "label": "duration",
        "offset": 0,
        "slot": "4",
        "type": "t_uint256"
      },
      {
        "astId": 248,
        "contract": "contracts/Lock.sol:TokenVesting",
        "label": "locked",
        "offset": 0,
        "slot": "5",
        "type": "t_mapping(t_address,t_mapping(t_address,t_struct(Locker)242_storage))"
      }
    ],
    "types": {
      "t_address": {
        "encoding": "inplace",
        "label": "address",
        "numberOfBytes": "20"
      },
      "t_mapping(t_address,t_mapping(t_address,t_struct(Locker)242_storage))": {
        "encoding": "mapping",
        "key": "t_address",
        "label": "mapping(address => mapping(address => struct TokenVesting.Locker))",
        "numberOfBytes": "32",
        "value": "t_mapping(t_address,t_struct(Locker)242_storage)"
      },
      "t_mapping(t_address,t_struct(Locker)242_storage)": {
        "encoding": "mapping",
        "key": "t_address",
        "label": "mapping(address => struct TokenVesting.Locker)",
        "numberOfBytes": "32",
        "value": "t_struct(Locker)242_storage"
      },
      "t_struct(Locker)242_storage": {
        "encoding": "inplace",
        "label": "struct TokenVesting.Locker",
        "members": [
          {
            "astId": 239,
            "contract": "contracts/Lock.sol:TokenVesting",
            "label": "amount",
            "offset": 0,
            "slot": "0",
            "type": "t_uint256"
          },
          {
            "astId": 241,
            "contract": "contracts/Lock.sol:TokenVesting",
            "label": "released",
            "offset": 0,
            "slot": "1",
            "type": "t_uint256"
          }
        ],
        "numberOfBytes": "64"
      },
      "t_uint256": {
        "encoding": "inplace",
        "label": "uint256",
        "numberOfBytes": "32"
      }
    }
  }
}